{
  "contractName": "MusicMap",
  "abi": [
    {
      "constant": true,
      "inputs": [],
      "name": "PunishmentMultiplier",
      "outputs": [
        {
          "name": "",
          "type": "int8"
        }
      ],
      "payable": false,
      "stateMutability": "view",
      "type": "function"
    },
    {
      "constant": true,
      "inputs": [
        {
          "name": "",
          "type": "int8"
        }
      ],
      "name": "genreRegistry",
      "outputs": [
        {
          "name": "totalVotes",
          "type": "int8"
        },
        {
          "name": "averageScore",
          "type": "int8"
        }
      ],
      "payable": false,
      "stateMutability": "view",
      "type": "function"
    },
    {
      "constant": true,
      "inputs": [
        {
          "name": "",
          "type": "address"
        }
      ],
      "name": "timeOfVoteExpiry",
      "outputs": [
        {
          "name": "",
          "type": "uint256"
        }
      ],
      "payable": false,
      "stateMutability": "view",
      "type": "function"
    },
    {
      "constant": true,
      "inputs": [
        {
          "name": "",
          "type": "bytes32"
        }
      ],
      "name": "trackRegistry",
      "outputs": [
        {
          "name": "trackGenre",
          "type": "int8"
        },
        {
          "name": "trackRating",
          "type": "int8"
        },
        {
          "name": "hash",
          "type": "bytes32"
        },
        {
          "name": "trackState",
          "type": "uint8"
        }
      ],
      "payable": false,
      "stateMutability": "view",
      "type": "function"
    },
    {
      "constant": true,
      "inputs": [],
      "name": "noOfTracks",
      "outputs": [
        {
          "name": "",
          "type": "int8"
        }
      ],
      "payable": false,
      "stateMutability": "view",
      "type": "function"
    },
    {
      "constant": true,
      "inputs": [
        {
          "name": "",
          "type": "address"
        }
      ],
      "name": "userRegistry",
      "outputs": [
        {
          "name": "noOfVotesInDay",
          "type": "int8"
        },
        {
          "name": "vouchCredits",
          "type": "uint256"
        },
        {
          "name": "rejectCredits",
          "type": "uint256"
        },
        {
          "name": "userAddress",
          "type": "address"
        }
      ],
      "payable": false,
      "stateMutability": "view",
      "type": "function"
    },
    {
      "constant": true,
      "inputs": [
        {
          "name": "",
          "type": "bytes32"
        }
      ],
      "name": "playlist",
      "outputs": [
        {
          "name": "trackGenre",
          "type": "int8"
        },
        {
          "name": "trackRating",
          "type": "int8"
        },
        {
          "name": "hash",
          "type": "bytes32"
        },
        {
          "name": "trackState",
          "type": "uint8"
        }
      ],
      "payable": false,
      "stateMutability": "view",
      "type": "function"
    },
    {
      "constant": true,
      "inputs": [],
      "name": "BlacklistThreshold",
      "outputs": [
        {
          "name": "",
          "type": "int8"
        }
      ],
      "payable": false,
      "stateMutability": "view",
      "type": "function"
    },
    {
      "constant": true,
      "inputs": [],
      "name": "WhitelistThreshold",
      "outputs": [
        {
          "name": "",
          "type": "int8"
        }
      ],
      "payable": false,
      "stateMutability": "view",
      "type": "function"
    },
    {
      "anonymous": false,
      "inputs": [
        {
          "indexed": false,
          "name": "userAddress",
          "type": "address"
        },
        {
          "indexed": false,
          "name": "trackgenre",
          "type": "int8"
        },
        {
          "indexed": false,
          "name": "voteValue",
          "type": "int256"
        },
        {
          "indexed": false,
          "name": "noOfVotesToday",
          "type": "int8"
        }
      ],
      "name": "VoteSuccessful",
      "type": "event"
    },
    {
      "anonymous": false,
      "inputs": [
        {
          "indexed": false,
          "name": "trackhash",
          "type": "bytes32"
        },
        {
          "indexed": false,
          "name": "userAddress",
          "type": "address"
        },
        {
          "indexed": false,
          "name": "trackgenre",
          "type": "int8"
        },
        {
          "indexed": false,
          "name": "voteValue",
          "type": "uint256"
        }
      ],
      "name": "TrackCreationSuccessful",
      "type": "event"
    },
    {
      "constant": false,
      "inputs": [
        {
          "name": "trackHash",
          "type": "bytes32"
        },
        {
          "name": "trackGenre",
          "type": "int8"
        }
      ],
      "name": "proposeTrack",
      "outputs": [],
      "payable": false,
      "stateMutability": "nonpayable",
      "type": "function"
    },
    {
      "constant": false,
      "inputs": [],
      "name": "createNewUser",
      "outputs": [],
      "payable": false,
      "stateMutability": "nonpayable",
      "type": "function"
    },
    {
      "constant": false,
      "inputs": [
        {
          "name": "trackHash",
          "type": "bytes32"
        },
        {
          "name": "didVouch",
          "type": "int8"
        }
      ],
      "name": "vouchOrReject",
      "outputs": [],
      "payable": false,
      "stateMutability": "nonpayable",
      "type": "function"
    }
  ],
  "bytecode": "0x608060405234801561001057600080fd5b50612130806100206000396000f3fe6080604052600436106100ba576000357c0100000000000000000000000000000000000000000000000000000000900463ffffffff16806305856b39146100bf5780630ad1f8c5146100f057806318d46ede146101555780631cecfae21461019d57806350afb452146102025780636184bbf7146102195780637d6bcecb146102975780637fe0dd32146102c85780639dd82d0a14610374578063ad10d9fe146103f2578063c7946c3a14610423578063ffd481461461046b575b600080fd5b3480156100cb57600080fd5b506100d461049c565b604051808260000b60000b815260200191505060405180910390f35b3480156100fc57600080fd5b5061012c6004803603602081101561011357600080fd5b81019080803560000b90602001909291905050506104a1565b604051808360000b60000b81526020018260000b60000b81526020019250505060405180910390f35b34801561016157600080fd5b5061019b6004803603604081101561017857600080fd5b8101908080359060200190929190803560000b90602001909291905050506104df565b005b3480156101a957600080fd5b506101ec600480360360208110156101c057600080fd5b81019080803573ffffffffffffffffffffffffffffffffffffffff169060200190929190505050610af0565b6040518082815260200191505060405180910390f35b34801561020e57600080fd5b50610217610b08565b005b34801561022557600080fd5b506102526004803603602081101561023c57600080fd5b8101908080359060200190929190505050610c0d565b604051808560000b60000b81526020018460000b60000b815260200183815260200182600281111561028057fe5b60ff16815260200194505050505060405180910390f35b3480156102a357600080fd5b506102ac610c64565b604051808260000b60000b815260200191505060405180910390f35b3480156102d457600080fd5b50610317600480360360208110156102eb57600080fd5b81019080803573ffffffffffffffffffffffffffffffffffffffff169060200190929190505050610c76565b604051808560000b60000b81526020018481526020018381526020018273ffffffffffffffffffffffffffffffffffffffff1673ffffffffffffffffffffffffffffffffffffffff16815260200194505050505060405180910390f35b34801561038057600080fd5b506103ad6004803603602081101561039757600080fd5b8101908080359060200190929190505050610cd3565b604051808560000b60000b81526020018460000b60000b81526020018381526020018260028111156103db57fe5b60ff16815260200194505050505060405180910390f35b3480156103fe57600080fd5b50610407610d2a565b604051808260000b60000b815260200191505060405180910390f35b34801561042f57600080fd5b506104696004803603604081101561044657600080fd5b8101908080359060200190929190803560000b9060200190929190505050610d4e565b005b34801561047757600080fd5b5061048061122a565b604051808260000b60000b815260200191505060405180910390f35b600581565b60016020528060005260406000206000915090508060000160009054906101000a900460000b908060000160019054906101000a900460000b905082565b60003390506000600260008581526020019081526020016000209050600060029050600073ffffffffffffffffffffffffffffffffffffffff16600360008573ffffffffffffffffffffffffffffffffffffffff1673ffffffffffffffffffffffffffffffffffffffff16815260200190815260200160002060030160009054906101000a900473ffffffffffffffffffffffffffffffffffffffff1673ffffffffffffffffffffffffffffffffffffffff161415151561062e576040517f08c379a000000000000000000000000000000000000000000000000000000000815260040180806020018281038252603b8152602001807f7573657220696e666f726d6174696f6e206973206e6f7420696e20726567697381526020017f7472792c20706c6561736520637265617465206e65772075736572000000000081525060400191505060405180910390fd5b8060ff166002600087815260200190815260200160002060020160009054906101000a900460ff16600281111561066157fe5b60ff16141515156106da576040517f08c379a000000000000000000000000000000000000000000000000000000000815260040180806020018281038252601d8152602001807f73656c656374656420747261636b20697320424c41434b4c495354656400000081525060200191505060405180910390fd5b8160050160008473ffffffffffffffffffffffffffffffffffffffff1673ffffffffffffffffffffffffffffffffffffffff16815260200190815260200160002060009054906101000a900460ff161515156107c4576040517f08c379a00000000000000000000000000000000000000000000000000000000081526004018080602001828103825260248152602001807f796f75206861766520616c726561647920766f746564206f6e2074686973207481526020017f7261636b0000000000000000000000000000000000000000000000000000000081525060400191505060405180910390fd5b6107cd8361122f565b151561088d576040517f08c379a00000000000000000000000000000000000000000000000000000000081526004018080602001828103825260488152602001807f796f75206861766520657863656564656420796f7572206e756d626572206f6681526020017f20766f74657320666f7220746f6461792c20706c65617365207472792061667481526020017f657220323468727300000000000000000000000000000000000000000000000081525060600191505060405180910390fd5b7fffffffffffffffffffffffffffffffffffffffffffffffffffffffffffffffff8460000b14806108c1575060018460000b145b151561095b576040517f08c379a00000000000000000000000000000000000000000000000000000000081526004018080602001828103825260308152602001807f656e73757265207468617420646964766f75636820706172616d61746572206981526020017f7320656974686572202d31206f7220310000000000000000000000000000000081525060400191505060405180910390fd5b6109658585611526565b610980858360000160009054906101000a900460000b611575565b61098b8585856118e9565b6109a58260000160009054906101000a900460000b611b3b565b60018260050160008573ffffffffffffffffffffffffffffffffffffffff1673ffffffffffffffffffffffffffffffffffffffff16815260200190815260200160002060006101000a81548160ff0219169083151502179055507f3aff3cdf9de0a4d10d7ba39d80db56f0753adecd5c49cfa3ef42277f358fa3ea838360000160009054906101000a900460000b86600360008873ffffffffffffffffffffffffffffffffffffffff1673ffffffffffffffffffffffffffffffffffffffff16815260200190815260200160002060000160009054906101000a900460000b604051808573ffffffffffffffffffffffffffffffffffffffff1673ffffffffffffffffffffffffffffffffffffffff1681526020018460000b60000b81526020018360000b81526020018260000b60000b815260200194505050505060405180910390a15050505050565b60056020528060005260406000206000915090505481565b610b10611f15565b33816060019073ffffffffffffffffffffffffffffffffffffffff16908173ffffffffffffffffffffffffffffffffffffffff168152505080600360003373ffffffffffffffffffffffffffffffffffffffff1673ffffffffffffffffffffffffffffffffffffffff16815260200190815260200160002060008201518160000160006101000a81548160ff021916908360000b60ff160217905550602082015181600101556040820151816002015560608201518160030160006101000a81548173ffffffffffffffffffffffffffffffffffffffff021916908373ffffffffffffffffffffffffffffffffffffffff16021790555090505050565b60026020528060005260406000206000915090508060000160009054906101000a900460000b908060000160019054906101000a900460000b908060010154908060020160009054906101000a900460ff16905084565b6000809054906101000a900460000b81565b60036020528060005260406000206000915090508060000160009054906101000a900460000b908060010154908060020154908060030160009054906101000a900473ffffffffffffffffffffffffffffffffffffffff16905084565b60046020528060005260406000206000915090508060000160009054906101000a900460000b908060000160019054906101000a900460000b908060010154908060020160009054906101000a900460ff16905084565b7ffffffffffffffffffffffffffffffffffffffffffffffffffffffffffffffffb81565b60006003905060006001028314151515610df6576040517f08c379a000000000000000000000000000000000000000000000000000000000815260040180806020018281038252602a8152602001807f706c6561736520636865636b20747261636b2068617368206973206e6f74203081526020017f20616e642072657472790000000000000000000000000000000000000000000081525060400191505060405180910390fd5b60006001026002600085815260200190815260200160002060010154141515610ead576040517f08c379a00000000000000000000000000000000000000000000000000000000081526004018080602001828103825260368152602001807f7468697320747261636b206861736820686173206265656e207573656420616c81526020017f726561647920706c656173652074727920616761696e0000000000000000000081525060400191505060405180910390fd5b8060000b8260000b13151515610f51576040517f08c379a00000000000000000000000000000000000000000000000000000000081526004018080602001828103825260328152602001807f706c6561736520656e7465726520612076616c69642067656e7265206e756d6281526020017f6572206265747765656e203020616e642032000000000000000000000000000081525060400191505060405180910390fd5b610f59611f56565b8381604001818152505082816000019060000b908160000b81525050610f7d611f15565b33816060019073ffffffffffffffffffffffffffffffffffffffff16908173ffffffffffffffffffffffffffffffffffffffff1681525050600181602001818152505080600360003373ffffffffffffffffffffffffffffffffffffffff1673ffffffffffffffffffffffffffffffffffffffff16815260200190815260200160002060008201518160000160006101000a81548160ff021916908360000b60ff160217905550602082015181600101556040820151816002015560608201518160030160006101000a81548173ffffffffffffffffffffffffffffffffffffffff021916908373ffffffffffffffffffffffffffffffffffffffff160217905550905050816002600087815260200190815260200160002060008201518160000160006101000a81548160ff021916908360000b60ff16021790555060208201518160000160016101000a81548160ff021916908360000b60ff1602179055506040820151816001015560608201518160020160006101000a81548160ff0219169083600281111561110c57fe5b0217905550608082015181600301908051906020019061112d929190611f9f565b5060a082015181600401908051906020019061114a929190611f9f565b5090505061115a85600133611be3565b60008081819054906101000a900460000b8092919060010191906101000a81548160ff021916908360000b60ff1602179055505061119784611b3b565b6111a03361122f565b507fac27e7b9eecd64bcf21cbeeb84747a1944cea8457c0fb497375e6b080d1e2a5c8533866001604051808581526020018473ffffffffffffffffffffffffffffffffffffffff1673ffffffffffffffffffffffffffffffffffffffff1681526020018360000b60000b815260200182815260200194505050505060405180910390a15050505050565b600581565b600080600a90506000600560008573ffffffffffffffffffffffffffffffffffffffff1673ffffffffffffffffffffffffffffffffffffffff16815260200190815260200160002054141561133057620151804201600560008573ffffffffffffffffffffffffffffffffffffffff1673ffffffffffffffffffffffffffffffffffffffff168152602001908152602001600020819055506001600360008573ffffffffffffffffffffffffffffffffffffffff1673ffffffffffffffffffffffffffffffffffffffff16815260200190815260200160002060000160006101000a81548160ff021916908360000b60ff1602179055506001915050611521565b6000600560008573ffffffffffffffffffffffffffffffffffffffff1673ffffffffffffffffffffffffffffffffffffffff1681526020019081526020016000205490508042111561144157620151804201600560008673ffffffffffffffffffffffffffffffffffffffff1673ffffffffffffffffffffffffffffffffffffffff168152602001908152602001600020819055506001600360008673ffffffffffffffffffffffffffffffffffffffff1673ffffffffffffffffffffffffffffffffffffffff16815260200190815260200160002060000160008282829054906101000a900460000b0192506101000a81548160ff021916908360000b60ff160217905550600192505050611521565b8160000b600360008673ffffffffffffffffffffffffffffffffffffffff1673ffffffffffffffffffffffffffffffffffffffff16815260200190815260200160002060000160009054906101000a900460000b60000b121561151a576001600360008673ffffffffffffffffffffffffffffffffffffffff1673ffffffffffffffffffffffffffffffffffffffff16815260200190815260200160002060000160008282829054906101000a900460000b0192506101000a81548160ff021916908360000b60ff160217905550600192505050611521565b6000925050505b919050565b6000600260008481526020019081526020016000209050818160000160019054906101000a900460000b018160000160016101000a81548160ff021916908360000b60ff160217905550505050565b60006002600084815260200190815260200160002090506000600281111561159957fe5b60ff168160020160009054906101000a900460ff1660028111156115b957fe5b60ff161480156115e05750600560000b8160000160019054906101000a900460000b60000b135b1561170957600160028111156115f257fe5b60ff168160020160009054906101000a900460ff16600281111561161257fe5b505080600460008581526020019081526020016000206000820160009054906101000a900460000b8160000160006101000a81548160ff021916908360000b60ff1602179055506000820160019054906101000a900460000b8160000160016101000a81548160ff021916908360000b60ff160217905550600182015481600101556002820160009054906101000a900460ff168160020160006101000a81548160ff021916908360028111156116c557fe5b021790555060038201816003019080546116e0929190612029565b5060048201816004019080546116f7929190612029565b5090505061170483611d0e565b6118e4565b6000600281111561171657fe5b60ff168160020160009054906101000a900460ff16600281111561173657fe5b60ff1614801561177c57507ffffffffffffffffffffffffffffffffffffffffffffffffffffffffffffffffb60000b8160000160019054906101000a900460000b60000b125b156118e35760028081111561178d57fe5b60ff168160020160009054906101000a900460ff1660028111156117ad57fe5b50506117b98383611e05565b60026000848152602001908152602001600020600080820160006101000a81549060ff02191690556000820160016101000a81549060ff021916905560018201600090556002820160006101000a81549060ff0219169055600382016000611821919061207b565b600482016000611831919061207b565b505060046000848152602001908152602001600020600080820160006101000a81549060ff02191690556000820160016101000a81549060ff021916905560018201600090556002820160006101000a81549060ff021916905560038201600061189b919061207b565b6004820160006118ab919061207b565b505060008081819054906101000a900460000b809291906001900391906101000a81548160ff021916908360000b60ff160217905550505b5b505050565b60006002600085815260200190815260200160002090506000600360008473ffffffffffffffffffffffffffffffffffffffff1673ffffffffffffffffffffffffffffffffffffffff168152602001908152602001600020905060007fffffffffffffffffffffffffffffffffffffffffffffffffffffffffffffffff8560000b1415611a4d5760008360040180549050905060008090505b81811015611a2757846004018181548110151561199b57fe5b9060005260206000200160009054906101000a900473ffffffffffffffffffffffffffffffffffffffff169250600360008473ffffffffffffffffffffffffffffffffffffffff1673ffffffffffffffffffffffffffffffffffffffff168152602001908152602001600020600201600081548092919060010191905055508080600101915050611982565b508260020160008154809291906001019190505550611a47878787611be3565b50611b33565b60018560000b1415611b325760008360030180549050905060008090505b81811015611b10578460030181815481101515611a8457fe5b9060005260206000200160009054906101000a900473ffffffffffffffffffffffffffffffffffffffff169250600360008473ffffffffffffffffffffffffffffffffffffffff1673ffffffffffffffffffffffffffffffffffffffff168152602001908152602001600020600101600081548092919060010191905055508080600101915050611a6b565b508260010160008154809291906001019190505550611b30878787611be3565b505b5b505050505050565b6000600160008360000b60000b8152602001908152602001600020905080600001600081819054906101000a900460000b8092919060010191906101000a81548160ff021916908360000b60ff160217905550506000809054906101000a900460000b60000b8160000160009054906101000a900460000b60000b811515611bbf57fe5b058160000160016101000a81548160ff021916908360000b60ff1602179055505050565b600060026000858152602001908152602001600020905060018360000b1415611c7357806003018290806001815401808255809150509060018203906000526020600020016000909192909190916101000a81548173ffffffffffffffffffffffffffffffffffffffff021916908373ffffffffffffffffffffffffffffffffffffffff16021790555050611d08565b7fffffffffffffffffffffffffffffffffffffffffffffffffffffffffffffffff8360000b1415611d0757806004018290806001815401808255809150509060018203906000526020600020016000909192909190916101000a81548173ffffffffffffffffffffffffffffffffffffffff021916908373ffffffffffffffffffffffffffffffffffffffff160217905550505b5b50505050565b600060026000838152602001908152602001600020905060008160000160019054906101000a900460000b905060006005820390506000808460040180549050905060008090505b81811015611dfc578560040181815481101515611d6f57fe5b9060005260206000200160009054906101000a900473ffffffffffffffffffffffffffffffffffffffff1692508360000b600360008573ffffffffffffffffffffffffffffffffffffffff1673ffffffffffffffffffffffffffffffffffffffff168152602001908152602001600020600101600082825403925050819055508080600101915050611d56565b50505050505050565b60006002600084815260200190815260200160002090506000600160008460000b60000b815260200190815260200160002060000160019054906101000a900460000b905060006005820290506000808460030180549050905060008090505b81811015611f0b578560030181815481101515611e7e57fe5b9060005260206000200160009054906101000a900473ffffffffffffffffffffffffffffffffffffffff1692508360000b600360008573ffffffffffffffffffffffffffffffffffffffff1673ffffffffffffffffffffffffffffffffffffffff168152602001908152602001600020600201600082825403925050819055508080600101915050611e65565b5050505050505050565b6080604051908101604052806000800b81526020016000815260200160008152602001600073ffffffffffffffffffffffffffffffffffffffff1681525090565b60c0604051908101604052806000800b81526020016000800b81526020016000801916815260200160006002811115611f8b57fe5b815260200160608152602001606081525090565b828054828255906000526020600020908101928215612018579160200282015b828111156120175782518260006101000a81548173ffffffffffffffffffffffffffffffffffffffff021916908373ffffffffffffffffffffffffffffffffffffffff16021790555091602001919060010190611fbf565b5b509050612025919061209c565b5090565b82805482825590600052602060002090810192821561206a5760005260206000209182015b8281111561206957825482559160010191906001019061204e565b5b509050612077919061209c565b5090565b508054600082559060005260206000209081019061209991906120df565b50565b6120dc91905b808211156120d857600081816101000a81549073ffffffffffffffffffffffffffffffffffffffff0219169055506001016120a2565b5090565b90565b61210191905b808211156120fd5760008160009055506001016120e5565b5090565b9056fea165627a7a7230582007322557bdcf177b585dba74188bde7bc015fbd397f973cdcc52ccc76a785cea0029",
  "source": "pragma solidity ^0.5.0;\r\n\r\nimport \"./Ownable.sol\";\r\n\r\ncontract MusicMap {\r\n    \r\n    /// @dev constants\r\n    int8 constant public WhitelistThreshold = 5;  \r\n    int8 constant public BlacklistThreshold = -5; \r\n    int8 constant public PunishmentMultiplier = 5; \r\n    int8 public noOfTracks; \r\n    \r\n    /// @notice enums  \r\n    enum TrackState { SANDBOX, WHITELIST, BLACKLIST} \r\n    enum TrackGenre {JAZZ, BLUES, ROCKNROLL, COUNTRY}    \r\n    event VoteSuccessful (address userAddress, int8 trackgenre, int voteValue, int8 noOfVotesToday);\r\n    event TrackCreationSuccessful (bytes32 trackhash, address userAddress, int8 trackgenre, uint voteValue);  \r\n    \r\n    /// @notice structs \r\n    struct Track  {      \r\n        int8 trackGenre;  \r\n        int8 trackRating; \r\n        bytes32 hash ;  \r\n        TrackState trackState; \r\n        address [] vouches; \r\n        address [] rejects; \r\n        mapping(address => bool) userDidVote;\r\n    }\r\n    \r\n   /// @notice details of each user and their history \r\n    struct User{\r\n        int8 noOfVotesInDay;  \r\n        uint256 vouchCredits; \r\n        uint256 rejectCredits; \r\n        address userAddress;        \r\n    }\r\n\r\n   /// @notice details of each genre \r\n    struct Genre{\r\n        int8 totalVotes; \r\n        int8 averageScore; \r\n    }\r\n\r\n    /// @notice mappings\r\n    /// @notice mapping of all genre types and their scores\r\n    /// @notice mapping storage of all tracks\r\n    /// @notice mapping storage of all users\r\n    /// @notice playlist mapping track hash to track\r\n    /// @notice mapping to keep track if user ids in relation to their expiry time\r\n    mapping (int8 => Genre) public genreRegistry; \r\n    mapping (bytes32 => Track) public trackRegistry; \r\n    mapping (address => User) public userRegistry; \r\n    mapping (bytes32 => Track) public playlist;  \r\n    mapping (address => uint) public timeOfVoteExpiry;\r\n\r\n    /// @notice ensure trackhash input is not 0\r\n    /// @notice check if track has been created already\r\n    /// @notice ensure genre input is valid\r\n    /// @dev automatic vouch for track creation\r\n    function proposeTrack(bytes32 trackHash, int8 trackGenre)public{ \r\n        int8 maxNumberOfGenres = 3;\r\n\r\n        \r\n        require(trackHash != 0, 'please check track hash is not 0 and retry'); \r\n        require(trackRegistry[trackHash].hash == 0, 'this track hash has been used already please try again'); \r\n        require(trackGenre <= maxNumberOfGenres, 'please entere a valid genre number between 0 and 2'); //\r\n        Track memory track ;  \r\n        track.hash = trackHash;  \r\n        track.trackGenre = trackGenre; \r\n\r\n        User memory user;  \r\n        user.userAddress = msg.sender;  \r\n        user.vouchCredits = 1; //\r\n        userRegistry[msg.sender] = user;\r\n        \r\n        trackRegistry[trackHash] = track;\r\n        updateuserAddressToVote(trackHash, 1,msg.sender); \r\n        noOfTracks++; \r\n        updateGenre(trackGenre); \r\n        updateNumberOfVotesPerDay(msg.sender);  \r\n\r\n        emit TrackCreationSuccessful(trackHash, msg.sender,trackGenre, 1);  \r\n    }\r\n\r\n\r\n    /// @notice this function is used to create new users, which are neccesary to place votes\r\n    /// @notice function create temporary instance of a new user \r\n    /// @notice define userAddress\r\n    /// @notice store user information in registry \r\n    function createNewUser()public{ \r\n    \tUser memory newUser; \r\n    \tnewUser.userAddress = msg.sender; \r\n    \tuserRegistry[msg.sender] = newUser;       \r\n    }    \r\n    \r\n    \r\n    /// @notice this function vouches or rejects the given track based on user vote \r\n    /// @notice create a temporary address instance for userAddress, this is declared this way so that the user ID can always be easily changed to a different type\r\n    /// @notice retrieve track information from storage\r\n    /// @notice ensure user is registered\r\n    /// @notice ensure track is not BLACKLISTed\r\n    /// @notice check if user has previously voted for this track\r\n    /// @notice check if user has votes more than 10 times in a day\r\n    /// @dev require didvouch param to be either equal to -1 or 1 to avoid excessive lines of code.(-1 = reject, 1= vouch). This code line can easliy be updated in future to allow more voting options\r\n\r\n    function vouchOrReject(bytes32 trackHash, int8 didVouch)public {        \r\n        address userAddress = msg.sender; //\r\n        Track storage track = trackRegistry[trackHash];\r\n        uint8 enumBlacklistValue = 2;\r\n\r\n        require(userRegistry[userAddress].userAddress != address(0),'user information is not in registry, please create new user'); \r\n        require(uint8(trackRegistry[trackHash].trackState) != enumBlacklistValue, 'selected track is BLACKLISTed');\r\n        require(!track.userDidVote[userAddress], 'you have already voted on this track'); \r\n        require(updateNumberOfVotesPerDay(userAddress),'you have exceeded your number of votes for today, please try after 24hrs');\r\n        require((didVouch == -1 || didVouch == 1 ), 'ensure that didvouch paramater is either -1 or 1'); \r\n        \r\n        updateTrackRating(trackHash,didVouch);\r\n        updateTrackState(trackHash,track.trackGenre); \r\n        updateCredits(trackHash,didVouch,userAddress);\r\n        updateGenre(track.trackGenre); \r\n        track.userDidVote[userAddress] = true; \r\n        \r\n        emit VoteSuccessful(userAddress,track.trackGenre, didVouch, userRegistry[userAddress].noOfVotesInDay); \r\n    }\r\n\r\n\r\n    /// @notice function to updated genre registry and information\r\n    /// @notice retrieve genre information from registry\r\n    /// @notice increment genre score\r\n    /// @notice update average score\r\n    function updateGenre(int8 trackGenre)internal {\r\n    \tGenre storage _genre = genreRegistry[trackGenre];\r\n    \t_genre.totalVotes++; \r\n    \t_genre.averageScore = _genre.totalVotes/noOfTracks; \r\n    \t}\r\n\r\n    \r\n    /// @notice internal function to update the TrackState of each track and user based on specified mechanics\r\n    /// @notice retrieve track information from registry\r\n    /// @notice check if WHITELISTing mechanics are met\r\n    /// @notice update TrackState to WHITELIST\r\n    /// @notice if WHITELISTed, save track to playlist\r\n    /// @notice check if BLACKLISTing mechanics are met\r\n    /// @notice update TrackState to BLACKLIST\r\n    /// @notice call function to penalize vouches for BLACKLISTed tracks\r\n    /// @notice if BLACKLISTed, then remove from registry\r\n    /// @notice if BLACKLISTed, delet from playlist\r\n    /// @noticereduce number of track count\r\n    /// @notice if non of the conditions are met, do nothing\r\n    function updateTrackState(bytes32 trackHash, int8 trackGenre)internal {\r\n        Track storage track = trackRegistry[trackHash]; \r\n        \r\n        if(uint8(track.trackState) == uint8 (TrackState.SANDBOX) && track.trackRating > WhitelistThreshold) { \r\n            uint8(track.trackState) == uint8(TrackState.WHITELIST); \r\n            playlist[trackHash] = track;  \r\n            applyWhitelistPenalty(trackHash); \r\n        }else if(uint8(track.trackState) == uint8(TrackState.SANDBOX) && track.trackRating < BlacklistThreshold) { \r\n            uint8(track.trackState) == uint8(TrackState.BLACKLIST); \r\n            applyBlacklistPenalty(trackHash, trackGenre); \r\n            delete trackRegistry[trackHash]; \r\n            delete playlist[trackHash]; \r\n            noOfTracks-- ; \r\n        }\r\n    }\r\n\r\n\r\n    /// @notice penalize voters who rejected tracks that are WHITELISTed\r\n    /// @notice retrieve track information from registry\r\n    /// @notice retrieve track rating\r\n    /// @notice calculate penalty score\r\n    /// @notice create temporary address type of user ID\r\n    /// @notice get the length of array containing the address of all users who voted reject on track\r\n    /// @notice loop through all voters of reject and apply penalty\r\n    /// @notice retrieve user ids\r\n    /// @notice apply penalty \r\n    function applyWhitelistPenalty(bytes32 trackHash)internal{\r\n        Track storage track = trackRegistry[trackHash]; \r\n        int8 _trackRating = track.trackRating; \r\n        int8 penalityScore = _trackRating - WhitelistThreshold; \r\n        address _userAddress; \r\n        uint length = track.rejects.length; \r\n                \r\n            for(uint i=0; i<length ; i++){ \r\n                _userAddress = track.rejects[i];\r\n                userRegistry[_userAddress].vouchCredits -= uint256(penalityScore); \r\n            }\r\n        }    \r\n\r\n    /// @notice penalize voters who vouched for tracks that are BLACKLISTed\r\n    /// @notice retrieve track information from registered\r\n    /// @notice retrieve genre average score\r\n    /// @notice calculate penalty score\r\n    /// @notice create temporary address type of user ID\r\n    /// @notice get the length of array containing the address of all users who voted vouch on track\r\n    /// @notice loop through all voters of vouch on the track and apply penalty\r\n    /// @notice retrieve user id\r\n    /// @notice apply penalty\r\n    function applyBlacklistPenalty(bytes32 trackHash, int8 _genre)internal{\r\n        Track storage track = trackRegistry[trackHash];  \r\n        int8 _averageScore = genreRegistry[_genre].averageScore; \r\n        int8 penalityScore = _averageScore * PunishmentMultiplier;  \r\n        address _userAddress; \r\n        uint length = track.vouches.length;  \r\n                \r\n            for(uint i=0; i<length ; i++){  \r\n                _userAddress = track.vouches[i];\r\n                userRegistry[_userAddress].rejectCredits -= uint256(penalityScore);  \r\n            }\r\n        }\r\n\r\n    /// @notice function to update arrays within tracks that contain all user ids of all vouches and rejections\r\n    /// @notice retrieve track information from register\r\n    /// @notice update array of users who vouched for the track\r\n    /// @notice update array of users who rejected the track\r\n    function updateuserAddressToVote(bytes32 trackHash, int8 didVouch,address userAddress)internal{        \r\n        Track storage track = trackRegistry[trackHash]; \r\n        if(didVouch == 1){\r\n            track.vouches.push(userAddress); \r\n        }\r\n        else if(didVouch == -1){\r\n            track.rejects.push(userAddress); \r\n        } \r\n    }    \r\n    \r\n    \r\n    /// @notice this function assigns credits to users appropriately based on vote type(vouch/reject)\r\n    /// @notice retrieve track information from registry\r\n    /// @notice update average score\r\n    function updateTrackRating(bytes32 trackHash, int8 didVouch)internal{\r\n        Track storage track = trackRegistry[trackHash]; \r\n        track.trackRating = track.trackRating + didVouch;        \r\n        }        \r\n    \r\n    \r\n    /// @notice this function checks if user is allowed to vote based on daily vote limits \r\n    /// @notice check if its the first time the user is voting\r\n    /// @notice set expiration time\r\n    /// @notice increase the number of votes the user has made in a day\r\n    /// @notice check if time is expired\r\n    /// @notice expiration time is due, so reset expiration time\r\n    /// @notice increment user votes in a day if expiration time is passed\r\n    /// @notice check if user has exceeded number of allowed votes in a day\r\n    /// @notice increment user votes in a day if less than limit\r\n    function updateNumberOfVotesPerDay(address userAddress)internal returns (bool){\r\n        int8 maxNoVotesInADay = 10;\r\n\r\n        if (timeOfVoteExpiry[userAddress] == 0){ \r\n            timeOfVoteExpiry[userAddress] = now + 1 days;\r\n            userRegistry[userAddress].noOfVotesInDay  = 1; \r\n            return true;            \r\n       } else{\r\n       \t\tuint expirationTime = timeOfVoteExpiry[userAddress];\r\n       \t\tif (now > expirationTime ){ \r\n\t            timeOfVoteExpiry[userAddress] = now + 1 days; \r\n\t            userRegistry[userAddress].noOfVotesInDay +=1; \r\n            \treturn true;\r\n\t        }else{\r\n\t        if (userRegistry[userAddress].noOfVotesInDay < maxNoVotesInADay){ \r\n\t        \tuserRegistry[userAddress].noOfVotesInDay +=1; \r\n\t        \treturn true;\r\n\t        }\r\n\t        \treturn false;\r\n\t    }\r\n\t      } \r\n    }      \r\n\r\n\r\n    /// @notice this function updates all subsequent user credits based on vote type\r\n    /// @notice retrieve track information from registry\r\n    /// @notice if the vote is a reject, then loop through all previous rejects and increment all address with a reject credit of +1 \r\n    /// @notice get array length of previous addressed who have voted reject   \r\n    /// @notice retrieve user ids   \r\n    /// @notice update all previous users with relevant reject credits\r\n    /// @notice  update users reject credits\r\n    /// @notice update vouch/reject array with users vote type\r\n    /// @notice if the vote is a vouch, then loop through all previous vouches and increment all address with a vouch credit of +1 \r\n    /// @notice get array length of previous addressed who have vouched   \r\n    /// @notice retrieve user ids\r\n    /// @notice update all previous users with relevant vouch credits\r\n    /// @notice update users reject credits\r\n    /// @notice update vouch/reject array with users vote type\r\n    function updateCredits(bytes32 trackHash, int8 didVouch, address userAddress)internal{       \r\n        Track storage track = trackRegistry[trackHash];  \r\n        User storage user = userRegistry[userAddress];\r\n        address _userAddress;\r\n        \r\n        if (didVouch == -1){      \r\n            uint length = track.rejects.length;          \r\n            for(uint i=0; i<length ; i++){\r\n                _userAddress = track.rejects[i];\r\n                userRegistry[_userAddress].rejectCredits++; \r\n            }\r\n            user.rejectCredits++; \r\n            updateuserAddressToVote(trackHash, didVouch,userAddress); \r\n        } else if(didVouch == 1 ){   \r\n            uint length = track.vouches.length; \r\n                \r\n            for(uint i=0; i<length ; i++){\r\n                _userAddress = track.vouches[i];\r\n                userRegistry[_userAddress].vouchCredits++; \r\n            }\r\n            user.vouchCredits++; \r\n            updateuserAddressToVote(trackHash, didVouch,userAddress); \r\n            } \r\n    }    \r\n}\r\n    \r\n    \r\n    \r\n \r\n\r\n",
  "sourcePath": "C:/Users/christopher igbojekw/openSource/musicmap/contracts/contracts/OceanBounty.sol",
  "compiler": {
    "name": "solc",
    "version": "0.5.0+commit.1d4f565a.Emscripten.clang"
  },
  "schemaVersion": "3.0.1",
  "updatedAt": "2019-01-15T00:34:17.201Z",
  "devdoc": {
    "methods": {
      "proposeTrack(bytes32,int8)": {
        "details": "automatic vouch for track creation"
      },
      "vouchOrReject(bytes32,int8)": {
        "details": "require didvouch param to be either equal to -1 or 1 to avoid excessive lines of code.(-1 = reject, 1= vouch). This code line can easliy be updated in future to allow more voting options"
      }
    }
  },
  "userdoc": {
    "methods": {
      "createNewUser()": {
        "notice": "store user information in registry "
      }
    }
  }
}