{
  "contractName": "OceanBounty",
  "abi": [
    {
      "constant": true,
      "inputs": [],
      "name": "genreScore",
      "outputs": [
        {
          "name": "",
          "type": "int256"
        }
      ],
      "payable": false,
      "stateMutability": "view",
      "type": "function"
    },
    {
      "constant": true,
      "inputs": [
        {
          "name": "",
          "type": "uint256"
        }
      ],
      "name": "timeOfVoteExpiry",
      "outputs": [
        {
          "name": "",
          "type": "uint256"
        }
      ],
      "payable": false,
      "stateMutability": "view",
      "type": "function"
    },
    {
      "constant": true,
      "inputs": [
        {
          "name": "",
          "type": "uint256"
        }
      ],
      "name": "trackRegistry",
      "outputs": [
        {
          "name": "hash",
          "type": "uint256"
        },
        {
          "name": "trackRating",
          "type": "int256"
        },
        {
          "name": "currentState",
          "type": "uint8"
        }
      ],
      "payable": false,
      "stateMutability": "view",
      "type": "function"
    },
    {
      "constant": true,
      "inputs": [
        {
          "name": "",
          "type": "uint256"
        }
      ],
      "name": "userResistry",
      "outputs": [
        {
          "name": "userId",
          "type": "int256"
        },
        {
          "name": "vouchCredits",
          "type": "int256"
        },
        {
          "name": "rejectCredits",
          "type": "int256"
        },
        {
          "name": "noOfVotesInDay",
          "type": "int256"
        }
      ],
      "payable": false,
      "stateMutability": "view",
      "type": "function"
    },
    {
      "constant": true,
      "inputs": [
        {
          "name": "",
          "type": "uint256"
        }
      ],
      "name": "playlist",
      "outputs": [
        {
          "name": "hash",
          "type": "uint256"
        },
        {
          "name": "trackRating",
          "type": "int256"
        },
        {
          "name": "currentState",
          "type": "uint8"
        }
      ],
      "payable": false,
      "stateMutability": "view",
      "type": "function"
    },
    {
      "constant": true,
      "inputs": [],
      "name": "noOfTracks",
      "outputs": [
        {
          "name": "",
          "type": "int256"
        }
      ],
      "payable": false,
      "stateMutability": "view",
      "type": "function"
    },
    {
      "constant": true,
      "inputs": [],
      "name": "averageScore",
      "outputs": [
        {
          "name": "",
          "type": "int256"
        }
      ],
      "payable": false,
      "stateMutability": "view",
      "type": "function"
    },
    {
      "anonymous": false,
      "inputs": [
        {
          "indexed": false,
          "name": "id",
          "type": "uint256"
        },
        {
          "indexed": false,
          "name": "vote",
          "type": "int256"
        }
      ],
      "name": "voted",
      "type": "event"
    },
    {
      "constant": false,
      "inputs": [
        {
          "name": "_hash",
          "type": "uint256"
        },
        {
          "name": "userId",
          "type": "uint256"
        }
      ],
      "name": "proposeTrack",
      "outputs": [],
      "payable": false,
      "stateMutability": "nonpayable",
      "type": "function"
    },
    {
      "constant": false,
      "inputs": [
        {
          "name": "trackHash",
          "type": "uint256"
        },
        {
          "name": "didVouch",
          "type": "int256"
        },
        {
          "name": "userId",
          "type": "uint256"
        }
      ],
      "name": "VouchOrReject",
      "outputs": [],
      "payable": false,
      "stateMutability": "nonpayable",
      "type": "function"
    }
  ],
  "bytecode": "0x608060405234801561001057600080fd5b50611060806100206000396000f3fe608060405260043610610099576000357c0100000000000000000000000000000000000000000000000000000000900463ffffffff16806305c83a1a1461009e57806323d5a7a4146100c9578063509dfa121461011857806352fa5a12146101835780637c8e000e146101e75780637d6bcecb14610252578063a7a51ed41461027d578063cedb97b6146102c2578063fe965812146102ed575b600080fd5b3480156100aa57600080fd5b506100b361033c565b6040518082815260200191505060405180910390f35b3480156100d557600080fd5b50610102600480360360208110156100ec57600080fd5b8101908080359060200190929190505050610342565b6040518082815260200191505060405180910390f35b34801561012457600080fd5b506101516004803603602081101561013b57600080fd5b810190808035906020019092919050505061035a565b6040518084815260200183815260200182600281111561016d57fe5b60ff168152602001935050505060405180910390f35b34801561018f57600080fd5b506101bc600480360360208110156101a657600080fd5b8101908080359060200190929190505050610391565b6040518085815260200184815260200183815260200182815260200194505050505060405180910390f35b3480156101f357600080fd5b506102206004803603602081101561020a57600080fd5b81019080803590602001909291905050506103c1565b6040518084815260200183815260200182600281111561023c57fe5b60ff168152602001935050505060405180910390f35b34801561025e57600080fd5b506102676103f8565b6040518082815260200191505060405180910390f35b34801561028957600080fd5b506102c0600480360360408110156102a057600080fd5b8101908080359060200190929190803590602001909291905050506103fe565b005b3480156102ce57600080fd5b506102d7610625565b6040518082815260200191505060405180910390f35b3480156102f957600080fd5b5061033a6004803603606081101561031057600080fd5b8101908080359060200190929190803590602001909291908035906020019092919050505061062b565b005b60005481565b60066020528060005260406000206000915090505481565b60036020528060005260406000206000915090508060000154908060010154908060020160009054906101000a900460ff16905083565b60046020528060005260406000206000915090508060000154908060010154908060020154908060030154905084565b60056020528060005260406000206000915090508060000154908060010154908060020160009054906101000a900460ff16905083565b60015481565b6000821415151561049d576040517f08c379a000000000000000000000000000000000000000000000000000000000815260040180806020018281038252602a8152602001807f706c6561736520636865636b20747261636b2068617368206973206e6f74203081526020017f20616e642072657472790000000000000000000000000000000000000000000081525060400191505060405180910390fd5b60006003600084815260200190815260200160002060000154141515610551576040517f08c379a00000000000000000000000000000000000000000000000000000000081526004018080602001828103825260368152602001807f7468697320747261636b206861736820686173206265656e207573656420616c81526020017f726561647920706c656173652074727920616761696e0000000000000000000081525060400191505060405180910390fd5b610559610f14565b8281600001818152505061057183826020015161092d565b61058083826020015184610958565b8060036000858152602001908152602001600020600082015181600001556020820151816001015560408201518160020160006101000a81548160ff021916908360028111156105cc57fe5b021790555060608201518160030190805190602001906105ed929190610f4f565b50608082015181600401908051906020019061060a929190610f4f565b50905050600160008154809291906001019190505550505050565b60025481565b600060036000858152602001908152602001600020905080600501600083815260200190815260200160002060009054906101000a900460ff16151515610700576040517f08c379a00000000000000000000000000000000000000000000000000000000081526004018080602001828103825260248152602001807f796f75206861766520616c726561647920766f746564206f6e2074686973207481526020017f7261636b0000000000000000000000000000000000000000000000000000000081525060400191505060405180910390fd5b610709826109ea565b15156107c9576040517f08c379a00000000000000000000000000000000000000000000000000000000081526004018080602001828103825260488152602001807f796f75206861766520657863656564656420796f7572206e756d626572206f6681526020017f20766f74657320666f7220746f6461792c20706c65617365207472792061667481526020017f657220323468727300000000000000000000000000000000000000000000000081525060600191505060405180910390fd5b7fffffffffffffffffffffffffffffffffffffffffffffffffffffffffffffffff8314806107f75750600183145b1515610891576040517f08c379a00000000000000000000000000000000000000000000000000000000081526004018080602001828103825260308152602001807f656e73757265207468617420646964766f75636820706172616d61746572206981526020017f7320656974686572202d31206f7220310000000000000000000000000000000081525060400191505060405180910390fd5b61089b848461092d565b6108a58483610b65565b6108af8484610d96565b6108ba848484610958565b600181600501600084815260200190815260200160002060006101000a81548160ff0219169083151502179055507fdf2355efd2b7566c713653e916c855f0a08e0d598df139e120ab002f39c851f68284604051808381526020018281526020019250505060405180910390a150505050565b6000600360008481526020019081526020016000209050818160010154018160010181905550505050565b600060036000858152602001908152602001600020905060018314156109ab57806003018290806001815401808255809150509060018203906000526020600020016000909192909190915055506109e4565b60018314156109e357806004018290806001815401808255809150509060018203906000526020600020016000909192909190915055505b5b50505050565b60008060066000848152602001908152602001600020541415610a5357620d2f0042016006600084815260200190815260200160002081905550600460008381526020019081526020016000206003016000815480929190600101919050555060019050610b60565b60006006600084815260200190815260200160002054141515610b5f574260066000848152602001908152602001600020541015610ab0576001600460008481526020019081526020016000206003018190555060019050610b60565b4260066000848152602001908152602001600020541115610b5e574260066000848152602001908152602001600020541115610b5d57600a60046000848152602001908152602001600020600301541215610b3457600460008381526020019081526020016000206003016000815480929190600101919050555060019050610b60565b600960046000848152602001908152602001600020600301541315610b5c5760009050610b60565b5b5b5b5b919050565b600060036000848152602001908152602001600020905060006002811115610b8957fe5b60ff168160020160009054906101000a900460ff166002811115610ba957fe5b60ff16148015610bbd5750600a8160010154135b15610c855760016002811115610bcf57fe5b60ff168160020160009054906101000a900460ff166002811115610bef57fe5b5050806005600085815260200190815260200160002060008201548160000155600182015481600101556002820160009054906101000a900460ff168160020160006101000a81548160ff02191690836002811115610c4a57fe5b02179055506003820181600301908054610c65929190610f9c565b506004820181600401908054610c7c929190610f9c565b50905050610d91565b60006002811115610c9257fe5b60ff168160020160009054906101000a900460ff166002811115610cb257fe5b60ff16148015610ce557507fffffffffffffffffffffffffffffffffffffffffffffffffffffffffffffff9c8160010154125b15610d9057600280811115610cf657fe5b60ff168160020160009054906101000a900460ff166002811115610d1657fe5b5050610d228383610ec7565b6003600084815260200190815260200160002060008082016000905560018201600090556002820160006101000a81549060ff0219169055600382016000610d6a9190610fee565b600482016000610d7a9190610fee565b5050600160008154809291906001900391905055505b5b505050565b600060036000848152602001908152602001600020905060007fffffffffffffffffffffffffffffffffffffffffffffffffffffffffffffffff831415610e495760008260040180549050905060008090505b81811015610e42578360040181815481101515610e0257fe5b9060005260206000200154925060046000848152602001908152602001600020600201600081548092919060010191905055508080600101915050610de9565b5050610ec1565b6001831415610ec05760008260030180549050905060008090505b81811015610ebd578360030181815481101515610e7d57fe5b9060005260206000200154925060046000848152602001908152602001600020600101600081548092919060010191905055508080600101915050610e64565b50505b5b50505050565b600060046000838152602001908152602001600020905060006005600360008681526020019081526020016000206001015402905080826002016000828254039250508190555050505050565b60a060405190810160405280600081526020016000815260200160006002811115610f3b57fe5b815260200160608152602001606081525090565b828054828255906000526020600020908101928215610f8b579160200282015b82811115610f8a578251825591602001919060010190610f6f565b5b509050610f98919061100f565b5090565b828054828255906000526020600020908101928215610fdd5760005260206000209182015b82811115610fdc578254825591600101919060010190610fc1565b5b509050610fea919061100f565b5090565b508054600082559060005260206000209081019061100c919061100f565b50565b61103191905b8082111561102d576000816000905550600101611015565b5090565b9056fea165627a7a723058203c34e0917daa8c934da0f9e21c749762f12ba8e5073c5c35d4d6bcf59a2e46ff0029",
  "source": "pragma solidity ^0.5.0;\r\n\r\n\r\ncontract OceanBounty  {\r\n    \r\n        /**************  constants ********************/\r\n    int constant WhitelistThreshold = 10;\r\n    int constant BlacklistThreshold = -100;\r\n    int constant punishmentMultiplier = 5;\r\n    int public genreScore;\r\n    int public noOfTracks;\r\n    int public averageScore;\r\n    \r\n       /**************  enums ********************/\r\n    \r\n    enum state { sandbox, whitelist, blacklist}\r\n    enum vote {vouch, reject}\r\n    \r\n           /**************  enums ********************/\r\n    \r\n    event voted (uint id, int vote);\r\n    \r\n        /************* structs ***************/\r\n        //Struct User keeps record of each track and its history\r\n    struct trackInfo  {\r\n        uint hash ;       //this is a hash of all metadata (stored offchain in mongodb for that track)(also acts as track id)  \r\n        int trackRating;                                //sum total of positive and negative votes for this track\r\n        state currentState;        //state of the track (neutral/whitelist/blacklist)\r\n        uint [] vouches; //an array of all user ids that vouched for the track\r\n        uint [] rejects; //an array of all user ids that rejected the track\r\n        mapping(uint => bool) userDidVote;\r\n    }\r\n    \r\n    \r\n   //Struct User keeps record of each user and their history  \r\n    struct userInfo{\r\n        int userId;\r\n        int vouchCredits;\r\n        int rejectCredits;\r\n        int noOfVotesInDay;\r\n    }\r\n    \r\n    /*************mappings**********/\r\n    mapping (uint => trackInfo) public trackRegistry; //mapping storage of all tracks;\r\n    mapping (uint => userInfo) public userResistry; //mapping storage of all users;\r\n    mapping (uint => trackInfo) public playlist;   // playlist mapping track hash to track\r\n    mapping (uint => uint) public timeOfVoteExpiry;//mapping to keep track if user ids in relation to their expiry time\r\n\r\n    \r\n    /****** functions *********/\r\n    //temporry function to create new tracks\r\n    function proposeTrack(uint _hash, uint userId)public{\r\n        \r\n        require(_hash != 0, 'please check track hash is not 0 and retry'); //ensure trackhash input is not 0\r\n        require(trackRegistry[_hash].hash == 0, 'this track hash has been used already please try again'); //check if track has been created already\r\n        \r\n        trackInfo memory track ;\r\n        track.hash = _hash;\r\n        \r\n        updateScore(_hash,track.trackRating); //user of the proposed track automatically vouches for the track\r\n        updateUserIdToVote(_hash, track.trackRating,userId); // update arrays of users and their vote\r\n        trackRegistry[_hash] = track;//store track in registry\r\n        noOfTracks++; //increment the number of tracks\r\n    }\r\n    \r\n    \r\n    \r\n    //this function vouches or rejects the given track based on user vote \r\n    function VouchOrReject(uint trackHash, int didVouch, uint userId)public {\r\n        \r\n        //update above mappings appropritely after calculating new state of the \r\n        //track in playlist and appropriate credits for this user and other users who voted for this track\r\n        \r\n        trackInfo storage track = trackRegistry[trackHash];//retrieve track information from storage\r\n        require(!track.userDidVote[userId], 'you have already voted on this track'); //check if user has previously voted for this track\r\n        require(checkNoOfVotesPerDay(userId),'you have exceeded your number of votes for today, please try after 24hrs');//check if user has votes more than 10 times in a day\r\n        require((didVouch == -1 || didVouch == 1 ), 'ensure that didvouch paramater is either -1 or 1'); // require didvouch param to be either equal to -1 or 1 to avoid excessive lines of code.(-1 = reject, 1= vouch). This code line can easliy be updated in future to allow more voting options\r\n        \r\n        updateScore(trackHash,didVouch);\r\n        updateState(trackHash,userId);//call function to update state \r\n        updateCredits(trackHash,didVouch);//update credits to users\r\n        updateUserIdToVote(trackHash, didVouch,userId); // update arrays of users and their votes\r\n        \r\n        track.userDidVote[userId] = true; //update user voting status as true(voted)\r\n        \r\n        emit voted(userId, didVouch);\r\n    }\r\n    \r\n    \r\n    \r\n    //internal function to update the state of each track and user based on specified mechanics\r\n    function updateState(uint trackHash, uint userId)internal {\r\n        trackInfo storage track = trackRegistry[trackHash];\r\n        \r\n        if(uint8(track.currentState) == uint8(state.sandbox) && track.trackRating > WhitelistThreshold) {\r\n            uint8(track.currentState) == uint8(state.whitelist);\r\n            playlist[trackHash] = track;  // if whitelisted, save track to playlist\r\n        }else if(uint8(track.currentState) == uint8(state.sandbox) && track.trackRating < BlacklistThreshold) {\r\n            uint8(track.currentState) == uint8(state.blacklist);\r\n            blacklistPenalty(trackHash,userId); // call function to penalize vouches for blacklisted tracks\r\n            delete trackRegistry[trackHash]; // if blacklisted, then remove from registry\r\n            noOfTracks-- ; //reduce number of track count\r\n        }\r\n    }\r\n    \r\n    \r\n      // function to update arrays of user votes which will be used to update credits  \r\n    function updateUserIdToVote(uint trackHash, int didVouch,uint userId)internal{\r\n        \r\n        trackInfo storage track = trackRegistry[trackHash];\r\n        if(didVouch == 1){\r\n            track.vouches.push(userId); //update array of users who vouched for the track\r\n        }\r\n        else if(didVouch == 1){\r\n            track.rejects.push(userId); //update array of users who rejected the track\r\n        } \r\n    }\r\n    \r\n    \r\n       //this function distributes credits appropriately based on game mechanics in above section\r\n    function updateScore(uint trackHash, int didVouch)internal{\r\n        trackInfo storage track = trackRegistry[trackHash];\r\n        track.trackRating = track.trackRating + didVouch;//update average score\r\n        \r\n        } \r\n        \r\n        \r\n         //penalize voters whos tracks arre blacklisted\r\n    function blacklistPenalty(uint trackHash, uint userId)internal{\r\n            userInfo storage user = userResistry[userId];\r\n            int penalityScore = trackRegistry[trackHash].trackRating * punishmentMultiplier;\r\n            user.rejectCredits -= penalityScore; //apply penalty \r\n        }\r\n    \r\n    \r\n    \r\n    //this function distributes credits appropriately based on game mechanics in above section\r\n    function checkNoOfVotesPerDay(uint userId)internal returns (bool){\r\n        \r\n        if (timeOfVoteExpiry[userId] == 0){ //check if its the first time the user is voting\r\n            timeOfVoteExpiry[userId] = now + 10 days;// set expiration time\r\n            userResistry[userId].noOfVotesInDay ++; // increase the number of votes the user has made in a day\r\n            return true;\r\n            \r\n        } else if(timeOfVoteExpiry[userId] != 0){\r\n            \r\n            if (timeOfVoteExpiry[userId] < now){ //check if the expiry time is passed\r\n            userResistry[userId].noOfVotesInDay = 1; // if the time is expired then reset the number of votes in a day;\r\n            return true;\r\n       \r\n                } else if(timeOfVoteExpiry[userId] >now){\r\n                    \r\n                    if (timeOfVoteExpiry[userId] > now){ \r\n                        if (userResistry[userId].noOfVotesInDay < 10){ //if time is not yet expired and count is less than 10, then user can not vote\r\n                            userResistry[userId].noOfVotesInDay++;\r\n                            return true;\r\n                        }else if (userResistry[userId].noOfVotesInDay > 9){//if time is not yet expired and count is greater than 9, then user can vote\r\n                            return false;\r\n                        }\r\n                    }\r\n                }\r\n        }\r\n    }\r\n\r\n       \r\n\r\n\r\n    //this function updates average score of this genre with every user action\r\n    function updateCredits(uint trackHash, int didVouch)internal{\r\n        \r\n        trackInfo storage track = trackRegistry[trackHash];\r\n        uint id ;\r\n        \r\n        if (didVouch == -1){\r\n                uint length = track.rejects.length;\r\n            \r\n            for(uint i=0; i<length ; i++){\r\n                id = track.rejects[i];//retrieve user id\r\n                userResistry[id].rejectCredits++; //update relevant reject credits\r\n            }\r\n            } else if(didVouch == 1 ){\r\n                uint length = track.vouches.length;\r\n                \r\n            for(uint i=0; i<length ; i++){\r\n                id = track.vouches[i];//retrieve user id\r\n                userResistry[id].vouchCredits++; //update relevant vouch credits\r\n            }\r\n            } \r\n    }\r\n    \r\n}\r\n    \r\n    \r\n    \r\n \r\n\r\n",
  "sourcePath": "C:/Users/christopher igbojekw/openSource/OceanBounty/contracts/OceanBounty.sol",
  "compiler": {
    "name": "solc",
    "version": "0.5.0+commit.1d4f565a.Emscripten.clang"
  },
  "schemaVersion": "3.0.0",
  "updatedAt": "2018-12-27T20:30:03.878Z",
  "devdoc": {
    "methods": {}
  },
  "userdoc": {
    "methods": {
      "proposeTrack(uint256,uint256)": {
        "notice": "**** functions ********"
      }
    }
  }
}