{
  "contractName": "OceanBounty",
  "abi": [
    {
      "constant": true,
      "inputs": [
        {
          "name": "",
          "type": "int8"
        }
      ],
      "name": "genreRegistry",
      "outputs": [
        {
          "name": "genreScore",
          "type": "int256"
        },
        {
          "name": "averageScore",
          "type": "int256"
        }
      ],
      "payable": false,
      "stateMutability": "view",
      "type": "function",
      "signature": "0x0ad1f8c5"
    },
    {
      "constant": true,
      "inputs": [
        {
          "name": "",
          "type": "address"
        }
      ],
      "name": "timeOfVoteExpiry",
      "outputs": [
        {
          "name": "",
          "type": "uint256"
        }
      ],
      "payable": false,
      "stateMutability": "view",
      "type": "function",
      "signature": "0x1cecfae2"
    },
    {
      "constant": true,
      "inputs": [
        {
          "name": "",
          "type": "uint256"
        }
      ],
      "name": "trackRegistry",
      "outputs": [
        {
          "name": "hash",
          "type": "uint256"
        },
        {
          "name": "trackGenre",
          "type": "int8"
        },
        {
          "name": "trackRating",
          "type": "int256"
        },
        {
          "name": "trackState",
          "type": "uint8"
        }
      ],
      "payable": false,
      "stateMutability": "view",
      "type": "function",
      "signature": "0x509dfa12"
    },
    {
      "constant": true,
      "inputs": [
        {
          "name": "",
          "type": "uint256"
        }
      ],
      "name": "playlist",
      "outputs": [
        {
          "name": "hash",
          "type": "uint256"
        },
        {
          "name": "trackGenre",
          "type": "int8"
        },
        {
          "name": "trackRating",
          "type": "int256"
        },
        {
          "name": "trackState",
          "type": "uint8"
        }
      ],
      "payable": false,
      "stateMutability": "view",
      "type": "function",
      "signature": "0x7c8e000e"
    },
    {
      "constant": true,
      "inputs": [],
      "name": "noOfTracks",
      "outputs": [
        {
          "name": "",
          "type": "int256"
        }
      ],
      "payable": false,
      "stateMutability": "view",
      "type": "function",
      "signature": "0x7d6bcecb"
    },
    {
      "constant": true,
      "inputs": [
        {
          "name": "",
          "type": "address"
        }
      ],
      "name": "userRegistry",
      "outputs": [
        {
          "name": "userId",
          "type": "address"
        },
        {
          "name": "vouchCredits",
          "type": "int256"
        },
        {
          "name": "rejectCredits",
          "type": "int256"
        },
        {
          "name": "noOfVotesInDay",
          "type": "uint256"
        }
      ],
      "payable": false,
      "stateMutability": "view",
      "type": "function",
      "signature": "0x7fe0dd32"
    },
    {
      "constant": true,
      "inputs": [],
      "name": "punishmentMultiplier",
      "outputs": [
        {
          "name": "",
          "type": "int256"
        }
      ],
      "payable": false,
      "stateMutability": "view",
      "type": "function",
      "signature": "0x95aa7678"
    },
    {
      "constant": true,
      "inputs": [],
      "name": "BlacklistThreshold",
      "outputs": [
        {
          "name": "",
          "type": "int256"
        }
      ],
      "payable": false,
      "stateMutability": "view",
      "type": "function",
      "signature": "0xad10d9fe"
    },
    {
      "constant": true,
      "inputs": [],
      "name": "WhitelistThreshold",
      "outputs": [
        {
          "name": "",
          "type": "int256"
        }
      ],
      "payable": false,
      "stateMutability": "view",
      "type": "function",
      "signature": "0xffd48146"
    },
    {
      "anonymous": false,
      "inputs": [
        {
          "indexed": false,
          "name": "userId",
          "type": "address"
        },
        {
          "indexed": false,
          "name": "trackgenre",
          "type": "int8"
        },
        {
          "indexed": false,
          "name": "voteValue",
          "type": "int256"
        },
        {
          "indexed": false,
          "name": "noOfVotesToday",
          "type": "uint256"
        }
      ],
      "name": "voteSuccessful",
      "type": "event",
      "signature": "0x1357edfa753e2c41b0aac281d89d1a5349e7f277474775849a13791631b352ba"
    },
    {
      "anonymous": false,
      "inputs": [
        {
          "indexed": false,
          "name": "trackhash",
          "type": "uint256"
        },
        {
          "indexed": false,
          "name": "userId",
          "type": "address"
        },
        {
          "indexed": false,
          "name": "trackgenre",
          "type": "int8"
        },
        {
          "indexed": false,
          "name": "voteValue",
          "type": "uint256"
        }
      ],
      "name": "trackCreationSuccessful",
      "type": "event",
      "signature": "0xc79c312a7979cb35012b89da965edf8f4db3e439a9458edd0b231001ab4d1c7f"
    },
    {
      "constant": false,
      "inputs": [
        {
          "name": "trackHash",
          "type": "uint256"
        },
        {
          "name": "trackGenre",
          "type": "int8"
        }
      ],
      "name": "proposeTrack",
      "outputs": [],
      "payable": false,
      "stateMutability": "nonpayable",
      "type": "function",
      "signature": "0xef1e3e58"
    },
    {
      "constant": false,
      "inputs": [],
      "name": "createNewUser",
      "outputs": [],
      "payable": false,
      "stateMutability": "nonpayable",
      "type": "function",
      "signature": "0x50afb452"
    },
    {
      "constant": false,
      "inputs": [
        {
          "name": "trackHash",
          "type": "uint256"
        },
        {
          "name": "didVouch",
          "type": "int256"
        }
      ],
      "name": "vouchOrReject",
      "outputs": [],
      "payable": false,
      "stateMutability": "nonpayable",
      "type": "function",
      "signature": "0xbf6217a7"
    }
  ],
  "bytecode": "0x608060405234801561001057600080fd5b50611e59806100206000396000f3fe6080604052600436106100ba576000357c0100000000000000000000000000000000000000000000000000000000900463ffffffff1680630ad1f8c5146100bf5780631cecfae214610118578063509dfa121461017d57806350afb452146101f55780637c8e000e1461020c5780637d6bcecb146102845780637fe0dd32146102af57806395aa767814610355578063ad10d9fe14610380578063bf6217a7146103ab578063ef1e3e58146103f0578063ffd4814614610438575b600080fd5b3480156100cb57600080fd5b506100fb600480360360208110156100e257600080fd5b81019080803560000b9060200190929190505050610463565b604051808381526020018281526020019250505060405180910390f35b34801561012457600080fd5b506101676004803603602081101561013b57600080fd5b81019080803573ffffffffffffffffffffffffffffffffffffffff169060200190929190505050610487565b6040518082815260200191505060405180910390f35b34801561018957600080fd5b506101b6600480360360208110156101a057600080fd5b810190808035906020019092919050505061049f565b604051808581526020018460000b60000b81526020018381526020018260028111156101de57fe5b60ff16815260200194505050505060405180910390f35b34801561020157600080fd5b5061020a6104e9565b005b34801561021857600080fd5b506102456004803603602081101561022f57600080fd5b81019080803590602001909291905050506105d4565b604051808581526020018460000b60000b815260200183815260200182600281111561026d57fe5b60ff16815260200194505050505060405180910390f35b34801561029057600080fd5b5061029961061e565b6040518082815260200191505060405180910390f35b3480156102bb57600080fd5b506102fe600480360360208110156102d257600080fd5b81019080803573ffffffffffffffffffffffffffffffffffffffff169060200190929190505050610624565b604051808573ffffffffffffffffffffffffffffffffffffffff1673ffffffffffffffffffffffffffffffffffffffff16815260200184815260200183815260200182815260200194505050505060405180910390f35b34801561036157600080fd5b5061036a610674565b6040518082815260200191505060405180910390f35b34801561038c57600080fd5b50610395610679565b6040518082815260200191505060405180910390f35b3480156103b757600080fd5b506103ee600480360360408110156103ce57600080fd5b81019080803590602001909291908035906020019092919050505061069d565b005b3480156103fc57600080fd5b506104366004803603604081101561041357600080fd5b8101908080359060200190929190803560000b9060200190929190505050610c88565b005b34801561044457600080fd5b5061044d6110fe565b6040518082815260200191505060405180910390f35b60016020528060005260406000206000915090508060000154908060010154905082565b60056020528060005260406000206000915090505481565b60026020528060005260406000206000915090508060000154908060010160009054906101000a900460000b908060020154908060030160009054906101000a900460ff16905084565b6104f1611c45565b33816000019073ffffffffffffffffffffffffffffffffffffffff16908173ffffffffffffffffffffffffffffffffffffffff168152505080600360003373ffffffffffffffffffffffffffffffffffffffff1673ffffffffffffffffffffffffffffffffffffffff16815260200190815260200160002060008201518160000160006101000a81548173ffffffffffffffffffffffffffffffffffffffff021916908373ffffffffffffffffffffffffffffffffffffffff16021790555060208201518160010155604082015181600201556060820151816003015590505050565b60046020528060005260406000206000915090508060000154908060010160009054906101000a900460000b908060020154908060030160009054906101000a900460ff16905084565b60005481565b60036020528060005260406000206000915090508060000160009054906101000a900473ffffffffffffffffffffffffffffffffffffffff16908060010154908060020154908060030154905084565b600581565b7ffffffffffffffffffffffffffffffffffffffffffffffffffffffffffffffffb81565b60003390506000600260008581526020019081526020016000209050600073ffffffffffffffffffffffffffffffffffffffff16600360008473ffffffffffffffffffffffffffffffffffffffff1673ffffffffffffffffffffffffffffffffffffffff16815260200190815260200160002060000160009054906101000a900473ffffffffffffffffffffffffffffffffffffffff1673ffffffffffffffffffffffffffffffffffffffff16141515156107e6576040517f08c379a000000000000000000000000000000000000000000000000000000000815260040180806020018281038252603b8152602001807f7573657220696e666f726d6174696f6e206973206e6f7420696e20726567697381526020017f7472792c20706c6561736520637265617465206e65772075736572000000000081525060400191505060405180910390fd5b600280600086815260200190815260200160002060030160009054906101000a900460ff16600281111561081657fe5b60ff161415151561088f576040517f08c379a000000000000000000000000000000000000000000000000000000000815260040180806020018281038252601d8152602001807f73656c656374656420747261636b20697320626c61636b6c697374656400000081525060200191505060405180910390fd5b8060060160008373ffffffffffffffffffffffffffffffffffffffff1673ffffffffffffffffffffffffffffffffffffffff16815260200190815260200160002060009054906101000a900460ff16151515610979576040517f08c379a00000000000000000000000000000000000000000000000000000000081526004018080602001828103825260248152602001807f796f75206861766520616c726561647920766f746564206f6e2074686973207481526020017f7261636b0000000000000000000000000000000000000000000000000000000081525060400191505060405180910390fd5b61098282611103565b1515610a42576040517f08c379a00000000000000000000000000000000000000000000000000000000081526004018080602001828103825260488152602001807f796f75206861766520657863656564656420796f7572206e756d626572206f6681526020017f20766f74657320666f7220746f6461792c20706c65617365207472792061667481526020017f657220323468727300000000000000000000000000000000000000000000000081525060600191505060405180910390fd5b7fffffffffffffffffffffffffffffffffffffffffffffffffffffffffffffffff831480610a705750600183145b1515610b0a576040517f08c379a00000000000000000000000000000000000000000000000000000000081526004018080602001828103825260308152602001807f656e73757265207468617420646964766f75636820706172616d61746572206981526020017f7320656974686572202d31206f7220310000000000000000000000000000000081525060400191505060405180910390fd5b610b148484611387565b610b2f848260010160009054906101000a900460000b6113b2565b610b3a84848461169e565b610b548160010160009054906101000a900460000b6118ea565b60018160060160008473ffffffffffffffffffffffffffffffffffffffff1673ffffffffffffffffffffffffffffffffffffffff16815260200190815260200160002060006101000a81548160ff0219169083151502179055507f1357edfa753e2c41b0aac281d89d1a5349e7f277474775849a13791631b352ba828260010160009054906101000a900460000b85600360008773ffffffffffffffffffffffffffffffffffffffff1673ffffffffffffffffffffffffffffffffffffffff16815260200190815260200160002060030154604051808573ffffffffffffffffffffffffffffffffffffffff1673ffffffffffffffffffffffffffffffffffffffff1681526020018460000b60000b815260200183815260200182815260200194505050505060405180910390a150505050565b60008214151515610d27576040517f08c379a000000000000000000000000000000000000000000000000000000000815260040180806020018281038252602a8152602001807f706c6561736520636865636b20747261636b2068617368206973206e6f74203081526020017f20616e642072657472790000000000000000000000000000000000000000000081525060400191505060405180910390fd5b60006002600084815260200190815260200160002060000154141515610ddb576040517f08c379a00000000000000000000000000000000000000000000000000000000081526004018080602001828103825260368152602001807f7468697320747261636b206861736820686173206265656e207573656420616c81526020017f726561647920706c656173652074727920616761696e0000000000000000000081525060400191505060405180910390fd5b60038160000b13151515610e7d576040517f08c379a00000000000000000000000000000000000000000000000000000000081526004018080602001828103825260328152602001807f706c6561736520656e7465726520612076616c69642067656e7265206e756d6281526020017f6572206265747765656e203020616e642032000000000000000000000000000081525060400191505060405180910390fd5b610e85611c84565b8281600001818152505081816020019060000b908160000b81525050610ea9611c45565b33816000019073ffffffffffffffffffffffffffffffffffffffff16908173ffffffffffffffffffffffffffffffffffffffff1681525050600181602001818152505080600360003373ffffffffffffffffffffffffffffffffffffffff1673ffffffffffffffffffffffffffffffffffffffff16815260200190815260200160002060008201518160000160006101000a81548173ffffffffffffffffffffffffffffffffffffffff021916908373ffffffffffffffffffffffffffffffffffffffff16021790555060208201518160010155604082015181600201556060820151816003015590505081600260008681526020019081526020016000206000820151816000015560208201518160010160006101000a81548160ff021916908360000b60ff1602179055506040820151816002015560608201518160030160006101000a81548160ff0219169083600281111561100457fe5b02179055506080820151816004019080519060200190611025929190611cc8565b5060a0820151816005019080519060200190611042929190611cc8565b5090505061105284600133611939565b600080815480929190600101919050555061106c836118ea565b61107533611103565b507fc79c312a7979cb35012b89da965edf8f4db3e439a9458edd0b231001ab4d1c7f8433856001604051808581526020018473ffffffffffffffffffffffffffffffffffffffff1673ffffffffffffffffffffffffffffffffffffffff1681526020018360000b60000b815260200182815260200194505050505060405180910390a150505050565b600581565b600080600560008473ffffffffffffffffffffffffffffffffffffffff1673ffffffffffffffffffffffffffffffffffffffff1681526020019081526020016000205414156111e657620151804201600560008473ffffffffffffffffffffffffffffffffffffffff1673ffffffffffffffffffffffffffffffffffffffff168152602001908152602001600020819055506001600360008473ffffffffffffffffffffffffffffffffffffffff1673ffffffffffffffffffffffffffffffffffffffff1681526020019081526020016000206003018190555060019050611382565b6000600560008473ffffffffffffffffffffffffffffffffffffffff1673ffffffffffffffffffffffffffffffffffffffff168152602001908152602001600020549050804211156112d657620151804201600560008573ffffffffffffffffffffffffffffffffffffffff1673ffffffffffffffffffffffffffffffffffffffff168152602001908152602001600020819055506001600360008573ffffffffffffffffffffffffffffffffffffffff1673ffffffffffffffffffffffffffffffffffffffff168152602001908152602001600020600301600082825401925050819055506001915050611382565b600a600360008573ffffffffffffffffffffffffffffffffffffffff1673ffffffffffffffffffffffffffffffffffffffff16815260200190815260200160002060030154101561137c576001600360008573ffffffffffffffffffffffffffffffffffffffff1673ffffffffffffffffffffffffffffffffffffffff168152602001908152602001600020600301600082825401925050819055506001915050611382565b60009150505b919050565b6000600260008481526020019081526020016000209050818160020154018160020181905550505050565b6000600260008481526020019081526020016000209050600060028111156113d657fe5b60ff168160030160009054906101000a900460ff1660028111156113f657fe5b60ff1614801561140a575060058160020154135b1561150c576001600281111561141c57fe5b60ff168160030160009054906101000a900460ff16600281111561143c57fe5b50508060046000858152602001908152602001600020600082015481600001556001820160009054906101000a900460000b8160010160006101000a81548160ff021916908360000b60ff160217905550600282015481600201556003820160009054906101000a900460ff168160030160006101000a81548160ff021916908360028111156114c857fe5b021790555060048201816004019080546114e3929190611d52565b5060058201816005019080546114fa929190611d52565b5090505061150783611a5e565b611699565b6000600281111561151957fe5b60ff168160030160009054906101000a900460ff16600281111561153957fe5b60ff1614801561156c57507ffffffffffffffffffffffffffffffffffffffffffffffffffffffffffffffffb8160020154125b156116985760028081111561157d57fe5b60ff168160030160009054906101000a900460ff16600281111561159d57fe5b50506115a98383611b45565b600260008481526020019081526020016000206000808201600090556001820160006101000a81549060ff021916905560028201600090556003820160006101000a81549060ff02191690556004820160006116059190611da4565b6005820160006116159190611da4565b5050600460008481526020019081526020016000206000808201600090556001820160006101000a81549060ff021916905560028201600090556003820160006101000a81549060ff02191690556004820160006116739190611da4565b6005820160006116839190611da4565b50506000808154809291906001900391905055505b5b505050565b60006002600085815260200190815260200160002090506000600360008473ffffffffffffffffffffffffffffffffffffffff1673ffffffffffffffffffffffffffffffffffffffff168152602001908152602001600020905060007fffffffffffffffffffffffffffffffffffffffffffffffffffffffffffffffff8514156117ff5760008360050180549050905060008090505b818110156117d957846005018181548110151561174d57fe5b9060005260206000200160009054906101000a900473ffffffffffffffffffffffffffffffffffffffff169250600360008473ffffffffffffffffffffffffffffffffffffffff1673ffffffffffffffffffffffffffffffffffffffff168152602001908152602001600020600201600081548092919060010191905055508080600101915050611734565b5082600201600081548092919060010191905055506117f9878787611939565b506118e2565b60018514156118e15760008360040180549050905060008090505b818110156118bf57846004018181548110151561183357fe5b9060005260206000200160009054906101000a900473ffffffffffffffffffffffffffffffffffffffff169250600360008473ffffffffffffffffffffffffffffffffffffffff1673ffffffffffffffffffffffffffffffffffffffff16815260200190815260200160002060010160008154809291906001019190505550808060010191505061181a565b5082600101600081548092919060010191905055506118df878787611939565b505b5b505050505050565b6000600160008360000b60000b815260200190815260200160002090508060000160008154809291906001019190505550600054816000015481151561192c57fe5b0581600101819055505050565b600060026000858152602001908152602001600020905060018314156119c657806004018290806001815401808255809150509060018203906000526020600020016000909192909190916101000a81548173ffffffffffffffffffffffffffffffffffffffff021916908373ffffffffffffffffffffffffffffffffffffffff16021790555050611a58565b7fffffffffffffffffffffffffffffffffffffffffffffffffffffffffffffffff831415611a5757806005018290806001815401808255809150509060018203906000526020600020016000909192909190916101000a81548173ffffffffffffffffffffffffffffffffffffffff021916908373ffffffffffffffffffffffffffffffffffffffff160217905550505b5b50505050565b600060026000838152602001908152602001600020905060008160020154905060006005820390506000808460050180549050905060008090505b81811015611b3c578560050181815481101515611ab257fe5b9060005260206000200160009054906101000a900473ffffffffffffffffffffffffffffffffffffffff16925083600360008573ffffffffffffffffffffffffffffffffffffffff1673ffffffffffffffffffffffffffffffffffffffff168152602001908152602001600020600101600082825403925050819055508080600101915050611a99565b50505050505050565b60006002600084815260200190815260200160002090506000600160008460000b60000b815260200190815260200160002060010154905060006005820290506000808460040180549050905060008090505b81811015611c3b578560040181815481101515611bb157fe5b9060005260206000200160009054906101000a900473ffffffffffffffffffffffffffffffffffffffff16925083600360008573ffffffffffffffffffffffffffffffffffffffff1673ffffffffffffffffffffffffffffffffffffffff168152602001908152602001600020600201600082825403925050819055508080600101915050611b98565b5050505050505050565b608060405190810160405280600073ffffffffffffffffffffffffffffffffffffffff1681526020016000815260200160008152602001600081525090565b60c060405190810160405280600081526020016000800b81526020016000815260200160006002811115611cb457fe5b815260200160608152602001606081525090565b828054828255906000526020600020908101928215611d41579160200282015b82811115611d405782518260006101000a81548173ffffffffffffffffffffffffffffffffffffffff021916908373ffffffffffffffffffffffffffffffffffffffff16021790555091602001919060010190611ce8565b5b509050611d4e9190611dc5565b5090565b828054828255906000526020600020908101928215611d935760005260206000209182015b82811115611d92578254825591600101919060010190611d77565b5b509050611da09190611dc5565b5090565b5080546000825590600052602060002090810190611dc29190611e08565b50565b611e0591905b80821115611e0157600081816101000a81549073ffffffffffffffffffffffffffffffffffffffff021916905550600101611dcb565b5090565b90565b611e2a91905b80821115611e26576000816000905550600101611e0e565b5090565b9056fea165627a7a7230582084c73e962df2544a305a8eec78c1a1a987adea403ee3ee0a28a30f6f4def34260029",
  "source": "pragma solidity ^0.5.0;\r\n\r\n\r\ncontract OceanBounty  {\r\n    \r\n        /**************  constants ********************/\r\n    int constant public WhitelistThreshold = 5;  //whtelist threshold\r\n    int constant public BlacklistThreshold = -5; // blacklist threshold\r\n    int constant public punishmentMultiplier = 5; // punishment multiplier\r\n    int public noOfTracks; // number of tracks in track registry\r\n    \r\n       /**************  enums ********************/\r\n    \r\n    enum state { sandbox, whitelist, blacklist} // list of track state options\r\n    enum genre {jazz, blues, rocknroll, country} //list of all available genres\r\n    \r\n           /**************  enums ********************/\r\n    \r\n    event voteSuccessful (address userId, int8 trackgenre, int voteValue, uint noOfVotesToday); //event to return a successful vote transaction\r\n    event trackCreationSuccessful(uint trackhash, address userId, int8 trackgenre, uint voteValue);  //event to return a successful track creation transaction\r\n    \r\n        /************* structs ***************/\r\n       //details of each track and its history\r\n    struct trackInfo  {\r\n        uint hash ;       //this is a hash of all metadata (stored offchain in mongodb for that track)(also acts as track id)  \r\n        int8 trackGenre;  //the track genre\r\n        int trackRating;  //sum total of positive and negative votes for this track\r\n        state trackState; //state of the track (neutral/whitelist/blacklist)\r\n        address [] vouches; //an array of all user ids that vouched for the track\r\n        address [] rejects; //an array of all user ids that rejected the track\r\n        mapping(address => bool) userDidVote;\r\n    }\r\n    \r\n   //details of each user and their history  \r\n    struct userInfo{\r\n        address userId;  //the users ID(address)\r\n        int vouchCredits; // no vouches after the user's vouch aside penalties\r\n        int rejectCredits; // no rejects after the user's rejct aside penalties\r\n        uint noOfVotesInDay; // number of votes, user has made within a 24 hour period\r\n    }\r\n\r\n   //details of each genre \r\n    struct genreInfo{\r\n        int genreScore; //number of total votes for genre\r\n        int averageScore; // genre score divided by the total number of votes\r\n    }\r\n\r\n    /*************mappings**********/\r\n    mapping (int8 => genreInfo) public genreRegistry; //mapping of all genre types and their scores\r\n    mapping (uint => trackInfo) public trackRegistry; //mapping storage of all tracks\r\n    mapping (address => userInfo) public userRegistry; //mapping storage of all users\r\n    mapping (uint => trackInfo) public playlist;   // playlist mapping track hash to track\r\n    mapping (address => uint) public timeOfVoteExpiry;//mapping to keep track if user ids in relation to their expiry time\r\n\r\n\r\n    // constructor(){\r\n    // \t//possibly create all available genres and stored them in genre registry\r\n    // }\r\n    \r\n    /****** functions *********/\r\n    //temporry function to create new tracks\r\n    function proposeTrack(uint trackHash, int8 trackGenre)public{ \r\n        \r\n        require(trackHash != 0, 'please check track hash is not 0 and retry'); //ensure trackhash input is not 0\r\n        require(trackRegistry[trackHash].hash == 0, 'this track hash has been used already please try again'); //check if track has been created already\r\n        require(trackGenre <= 3, 'please entere a valid genre number between 0 and 2'); //ensure genre input is valid\r\n        trackInfo memory track ;  //created temporary instance of a track\r\n        track.hash = trackHash;  // assign the temporary instance of track a hash value\r\n        track.trackGenre = trackGenre; //store track genre in track details\r\n\r\n\r\n        userInfo memory user;  //created temporary instance of a user\r\n        user.userId = msg.sender;  // assign the temporary of user instance a track hash value\r\n        user.vouchCredits = 1; //automatic vouch for track creation\r\n        userRegistry[msg.sender] = user;//store user in registry\r\n        \r\n        trackRegistry[trackHash] = track;//store track in registry\r\n        updateUserIdToVote(trackHash, 1,msg.sender); //update array registry of users who have vouched for this track        \r\n        noOfTracks++; //increment the number of tracks\r\n        updateGenreInfo(trackGenre); //update genre information\r\n        updateNumberOfVotesPerDay(msg.sender);  // update no of votes per day of user\r\n\r\n        emit trackCreationSuccessful(trackHash, msg.sender,trackGenre, 1);  // emit event that track was created successfuly\r\n    }\r\n\r\n\r\n    // this function is used to create new users, which are neccesary to place votes\r\n    function createNewUser()public{ \r\n    \tuserInfo memory newUser; // create temporary instance of a new user \r\n    \tnewUser.userId = msg.sender; //define userID\r\n    \tuserRegistry[msg.sender] = newUser; //store user information in registry       \r\n    }    \r\n    \r\n    \r\n    //this function vouches or rejects the given track based on user vote \r\n    function vouchOrReject(uint trackHash, int didVouch)public {        \r\n        address userId = msg.sender; //create a temporary address instance for userID, this is declared this way so that the user ID can always be easily changed to a different type\r\n        trackInfo storage track = trackRegistry[trackHash];//retrieve track information from storage\r\n\r\n        require(userRegistry[userId].userId != address(0),'user information is not in registry, please create new user'); //ensure user is registered\r\n        require(uint8(trackRegistry[trackHash].trackState) != 2, 'selected track is blacklisted');// ensure track is not blacklisted\r\n        require(!track.userDidVote[userId], 'you have already voted on this track'); //check if user has previously voted for this track\r\n        require(updateNumberOfVotesPerDay(userId),'you have exceeded your number of votes for today, please try after 24hrs');//check if user has votes more than 10 times in a day\r\n        require((didVouch == -1 || didVouch == 1 ), 'ensure that didvouch paramater is either -1 or 1'); // require didvouch param to be either equal to -1 or 1 to avoid excessive lines of code.(-1 = reject, 1= vouch). This code line can easliy be updated in future to allow more voting options\r\n        \r\n        updateTrackRating(trackHash,didVouch); // update the track track rating score based on vouch or reject\r\n        updateState(trackHash,track.trackGenre);//call function to update the state of the track- sandbox, whitelist, blacklist \r\n        updateCredits(trackHash,didVouch,userId);//update user vouch or reject credits\r\n        updateGenreInfo(track.trackGenre);  //update genre registry with relevant information such as genre score and average score      \r\n        track.userDidVote[userId] = true; //record that user has voted on this track, to prevent multiple votes a track from the same user\r\n        \r\n        emit voteSuccessful(userId,track.trackGenre, didVouch, userRegistry[userId].noOfVotesInDay); //emit event that vote was successful\r\n    }\r\n\r\n\r\n    //function to updated genre registry and information\r\n    function updateGenreInfo(int8 trackGenre)internal {\r\n    \tgenreInfo storage _genre = genreRegistry[trackGenre]; // retrieve genre information from registry\r\n    \t_genre.genreScore++; //increment genre score\r\n    \t_genre.averageScore = _genre.genreScore/noOfTracks; //update average score\r\n    \t}\r\n\r\n    \r\n    //internal function to update the state of each track and user based on specified mechanics\r\n    function updateState(uint trackHash, int8 trackGenre)internal {\r\n        trackInfo storage track = trackRegistry[trackHash]; //retrieve track information from registry\r\n        \r\n        if(uint8(track.trackState) == uint8 (state.sandbox) && track.trackRating > WhitelistThreshold) { // check if whitelisting mechanics are met\r\n            uint8(track.trackState) == uint8(state.whitelist); //update state to whitelist\r\n            playlist[trackHash] = track;  // if whitelisted, save track to playlist\r\n            applyWhitelistPenalty(trackHash); // aply whitelist penalty\r\n        }else if(uint8(track.trackState) == uint8(state.sandbox) && track.trackRating < BlacklistThreshold) { //check if blacklisting mechanics are met\r\n            uint8(track.trackState) == uint8(state.blacklist); //update state to blacklist\r\n            applyBlacklistPenalty(trackHash, trackGenre); // call function to penalize vouches for blacklisted tracks\r\n            delete trackRegistry[trackHash]; // if blacklisted, then remove from registry\r\n            delete playlist[trackHash]; // if blacklisted, delet from playlist\r\n            noOfTracks-- ; //reduce number of track count\r\n        }\r\n        return; // if non of the conditions are met, do nothing\r\n    }\r\n\r\n\r\n         //penalize voters who rejected tracks that are whitelisted\r\n    function applyWhitelistPenalty(uint trackHash)internal{\r\n        trackInfo storage track = trackRegistry[trackHash]; //retrieve track information from registry\r\n        int _trackRating = track.trackRating; // retrieve track rating\r\n        int penalityScore = _trackRating - WhitelistThreshold; //calculate penalty score\r\n        address _userId; //create temporary address type of user ID\r\n        uint length = track.rejects.length; // get the length of array containing the address of all users who voted reject on track\r\n                \r\n            for(uint i=0; i<length ; i++){ // loop through all voters of reject and apply penalty\r\n                _userId = track.rejects[i];//retrieve user ids\r\n                userRegistry[_userId].vouchCredits -= penalityScore; //apply penalty \r\n            }\r\n        }    \r\n\r\n\r\n       //penalize voters who vouched for tracks that are blacklisted\r\n    function applyBlacklistPenalty(uint trackHash, int8 _genre)internal{\r\n        trackInfo storage track = trackRegistry[trackHash];  //retrieve track information from registry\r\n        int _averageScore = genreRegistry[_genre].averageScore; // retrieve genre average score\r\n        int penalityScore = _averageScore * punishmentMultiplier;  //calculate penalty score\r\n        address _userId;  //create temporary address type of user ID\r\n        uint length = track.vouches.length;  // get the length of array containing the address of all users who voted vouch on track\r\n                \r\n            for(uint i=0; i<length ; i++){  // loop through all voters of vouch on the track and apply penalty\r\n                _userId = track.vouches[i];//retrieve user ids\r\n                userRegistry[_userId].rejectCredits -= penalityScore; //apply penalty \r\n            }\r\n        }\r\n\r\n      // function to update arrays within tracks that contain all user ids of all vouches and rejections\r\n    function updateUserIdToVote(uint trackHash, int didVouch,address userId)internal{        \r\n        trackInfo storage track = trackRegistry[trackHash]; //retrieve track information from registry\r\n        if(didVouch == 1){\r\n            track.vouches.push(userId); //update array of users who vouched for the track\r\n        }\r\n        else if(didVouch == -1){\r\n            track.rejects.push(userId); //update array of users who rejected the track\r\n        } \r\n    }    \r\n    \r\n    \r\n       //this function assigns credits to users appropriately based on vote type(vouch/reject)\r\n    function updateTrackRating(uint trackHash, int didVouch)internal{\r\n        trackInfo storage track = trackRegistry[trackHash]; //retrieve track information from registry\r\n        track.trackRating = track.trackRating + didVouch;//update average score        \r\n        }        \r\n    \r\n    \r\n    //this function checks if user is allowed to vote based on daily vote limits \r\n    function updateNumberOfVotesPerDay(address userId)internal returns (bool){\r\n\r\n        if (timeOfVoteExpiry[userId] == 0){ //check if its the first time the user is voting\r\n            timeOfVoteExpiry[userId] = now + 1 days;// set expiration time\r\n            userRegistry[userId].noOfVotesInDay  = 1; // increase the number of votes the user has made in a day\r\n            return true;            \r\n       } else{\r\n       \t\tuint expirationTime = timeOfVoteExpiry[userId];\r\n       \t\t//userRegistry[userId].noOfVotesInDay < 11 ||\r\n       \t\tif (now > expirationTime ){ //check if time is expired\r\n\t            timeOfVoteExpiry[userId] = now + 1 days; //expiration time is due, so reset expiration time\r\n\t            userRegistry[userId].noOfVotesInDay +=1; // increment user votes in a day if expiration time is passed\r\n            \treturn true;\r\n\t        }else{\r\n\t        if (userRegistry[userId].noOfVotesInDay < 10){ //check if user has exceeded number of allowed votes in a day\r\n\t        \tuserRegistry[userId].noOfVotesInDay +=1; // increment user votes in a day if less than limit\r\n\t        \treturn true;\r\n\t        }\r\n\t        \treturn false;\r\n\t    }\r\n\t      } \r\n    }      \r\n\r\n\r\n    //this function updates all subsequent user credits based on vote type\r\n    function updateCredits(uint trackHash, int didVouch, address userId)internal{       \r\n        trackInfo storage track = trackRegistry[trackHash];  //retrieve track information from registry\r\n        userInfo storage user = userRegistry[userId];\r\n        address _userId;\r\n        \r\n        if (didVouch == -1){      // if the vote is a reject, then loop through all previous rejects and increment all address with a reject credit of +1  \t\r\n            uint length = track.rejects.length;  //get array length of previous addressed who have voted reject          \r\n            for(uint i=0; i<length ; i++){\r\n                _userId = track.rejects[i];//retrieve user ids\r\n                userRegistry[_userId].rejectCredits++; //update all previous users with relevant reject credits\r\n            }\r\n            user.rejectCredits++; // update users reject credits\r\n            updateUserIdToVote(trackHash, didVouch,userId); // update vouch/reject array with users vote type\r\n        } else if(didVouch == 1 ){      // if the vote is a vouch, then loop through all previous vouches and increment all address with a vouch credit of +1   \t\r\n            uint length = track.vouches.length; //get array length of previous addressed who have vouched\r\n                \r\n            for(uint i=0; i<length ; i++){\r\n                _userId = track.vouches[i];//retrieve user ids\r\n                userRegistry[_userId].vouchCredits++; //update all previous users with relevant vouch credits\r\n            }\r\n            user.vouchCredits++; // update users reject credits\r\n            updateUserIdToVote(trackHash, didVouch,userId); // update vouch/reject array with users vote type\r\n            } \r\n    }    \r\n}\r\n    \r\n    \r\n    \r\n \r\n\r\n",
  "sourcePath": "C:/Users/christopher igbojekw/openSource/OceanBounty/contracts/OceanBounty.sol",
  "compiler": {
    "name": "solc",
    "version": "0.5.0+commit.1d4f565a.Emscripten.clang"
  },
  "schemaVersion": "3.0.2",
  "updatedAt": "2019-02-24T16:47:46.068Z",
  "devdoc": {
    "methods": {}
  },
  "userdoc": {
    "methods": {
      "proposeTrack(uint256,int8)": {
        "notice": "**** functions ********"
      }
    }
  }
}