{
  "contractName": "OceanBounty2",
  "abi": [
    {
      "constant": true,
      "inputs": [],
      "name": "PunishmentMultiplier",
      "outputs": [
        {
          "name": "",
          "type": "int8"
        }
      ],
      "payable": false,
      "stateMutability": "view",
      "type": "function",
      "signature": "0x05856b39"
    },
    {
      "constant": true,
      "inputs": [
        {
          "name": "",
          "type": "int8"
        }
      ],
      "name": "genreRegistry",
      "outputs": [
        {
          "name": "totalVotes",
          "type": "int8"
        },
        {
          "name": "averageScore",
          "type": "int8"
        }
      ],
      "payable": false,
      "stateMutability": "view",
      "type": "function",
      "signature": "0x0ad1f8c5"
    },
    {
      "constant": true,
      "inputs": [
        {
          "name": "",
          "type": "address"
        }
      ],
      "name": "timeOfVoteExpiry",
      "outputs": [
        {
          "name": "",
          "type": "uint256"
        }
      ],
      "payable": false,
      "stateMutability": "view",
      "type": "function",
      "signature": "0x1cecfae2"
    },
    {
      "constant": true,
      "inputs": [
        {
          "name": "",
          "type": "bytes32"
        }
      ],
      "name": "trackRegistry",
      "outputs": [
        {
          "name": "trackGenre",
          "type": "int8"
        },
        {
          "name": "trackRating",
          "type": "int8"
        },
        {
          "name": "hash",
          "type": "bytes32"
        },
        {
          "name": "trackState",
          "type": "uint8"
        }
      ],
      "payable": false,
      "stateMutability": "view",
      "type": "function",
      "signature": "0x6184bbf7"
    },
    {
      "constant": false,
      "inputs": [],
      "name": "renounceOwnership",
      "outputs": [],
      "payable": false,
      "stateMutability": "nonpayable",
      "type": "function",
      "signature": "0x715018a6"
    },
    {
      "constant": true,
      "inputs": [],
      "name": "noOfTracks",
      "outputs": [
        {
          "name": "",
          "type": "int8"
        }
      ],
      "payable": false,
      "stateMutability": "view",
      "type": "function",
      "signature": "0x7d6bcecb"
    },
    {
      "constant": true,
      "inputs": [
        {
          "name": "",
          "type": "address"
        }
      ],
      "name": "userRegistry",
      "outputs": [
        {
          "name": "noOfVotesInDay",
          "type": "int8"
        },
        {
          "name": "vouchCredits",
          "type": "uint256"
        },
        {
          "name": "rejectCredits",
          "type": "uint256"
        },
        {
          "name": "userAddress",
          "type": "address"
        }
      ],
      "payable": false,
      "stateMutability": "view",
      "type": "function",
      "signature": "0x7fe0dd32"
    },
    {
      "constant": true,
      "inputs": [],
      "name": "owner",
      "outputs": [
        {
          "name": "",
          "type": "address"
        }
      ],
      "payable": false,
      "stateMutability": "view",
      "type": "function",
      "signature": "0x8da5cb5b"
    },
    {
      "constant": true,
      "inputs": [],
      "name": "isOwner",
      "outputs": [
        {
          "name": "",
          "type": "bool"
        }
      ],
      "payable": false,
      "stateMutability": "view",
      "type": "function",
      "signature": "0x8f32d59b"
    },
    {
      "constant": true,
      "inputs": [
        {
          "name": "",
          "type": "bytes32"
        }
      ],
      "name": "playlist",
      "outputs": [
        {
          "name": "trackGenre",
          "type": "int8"
        },
        {
          "name": "trackRating",
          "type": "int8"
        },
        {
          "name": "hash",
          "type": "bytes32"
        },
        {
          "name": "trackState",
          "type": "uint8"
        }
      ],
      "payable": false,
      "stateMutability": "view",
      "type": "function",
      "signature": "0x9dd82d0a"
    },
    {
      "constant": true,
      "inputs": [],
      "name": "BlacklistThreshold",
      "outputs": [
        {
          "name": "",
          "type": "int8"
        }
      ],
      "payable": false,
      "stateMutability": "view",
      "type": "function",
      "signature": "0xad10d9fe"
    },
    {
      "constant": false,
      "inputs": [
        {
          "name": "newOwner",
          "type": "address"
        }
      ],
      "name": "transferOwnership",
      "outputs": [],
      "payable": false,
      "stateMutability": "nonpayable",
      "type": "function",
      "signature": "0xf2fde38b"
    },
    {
      "constant": true,
      "inputs": [],
      "name": "WhitelistThreshold",
      "outputs": [
        {
          "name": "",
          "type": "int8"
        }
      ],
      "payable": false,
      "stateMutability": "view",
      "type": "function",
      "signature": "0xffd48146"
    },
    {
      "anonymous": false,
      "inputs": [
        {
          "indexed": false,
          "name": "userAddress",
          "type": "address"
        },
        {
          "indexed": false,
          "name": "trackgenre",
          "type": "int8"
        },
        {
          "indexed": false,
          "name": "voteValue",
          "type": "int256"
        },
        {
          "indexed": false,
          "name": "noOfVotesToday",
          "type": "int8"
        }
      ],
      "name": "VoteSuccessful",
      "type": "event",
      "signature": "0x3aff3cdf9de0a4d10d7ba39d80db56f0753adecd5c49cfa3ef42277f358fa3ea"
    },
    {
      "anonymous": false,
      "inputs": [
        {
          "indexed": false,
          "name": "trackhash",
          "type": "bytes32"
        },
        {
          "indexed": false,
          "name": "userAddress",
          "type": "address"
        },
        {
          "indexed": false,
          "name": "trackgenre",
          "type": "int8"
        },
        {
          "indexed": false,
          "name": "voteValue",
          "type": "uint256"
        }
      ],
      "name": "TrackCreationSuccessful",
      "type": "event",
      "signature": "0xac27e7b9eecd64bcf21cbeeb84747a1944cea8457c0fb497375e6b080d1e2a5c"
    },
    {
      "anonymous": false,
      "inputs": [
        {
          "indexed": true,
          "name": "previousOwner",
          "type": "address"
        },
        {
          "indexed": true,
          "name": "newOwner",
          "type": "address"
        }
      ],
      "name": "OwnershipTransferred",
      "type": "event",
      "signature": "0x8be0079c531659141344cd1fd0a4f28419497f9722a3daafe3b4186f6b6457e0"
    },
    {
      "constant": false,
      "inputs": [
        {
          "name": "trackHash",
          "type": "bytes32"
        },
        {
          "name": "trackGenre",
          "type": "int8"
        }
      ],
      "name": "proposeTrack",
      "outputs": [],
      "payable": false,
      "stateMutability": "nonpayable",
      "type": "function",
      "signature": "0xc7946c3a"
    },
    {
      "constant": false,
      "inputs": [],
      "name": "createNewUser",
      "outputs": [],
      "payable": false,
      "stateMutability": "nonpayable",
      "type": "function",
      "signature": "0x50afb452"
    },
    {
      "constant": false,
      "inputs": [
        {
          "name": "trackHash",
          "type": "bytes32"
        },
        {
          "name": "didVouch",
          "type": "int8"
        }
      ],
      "name": "vouchOrReject",
      "outputs": [],
      "payable": false,
      "stateMutability": "nonpayable",
      "type": "function",
      "signature": "0x18d46ede"
    }
  ],
  "bytecode": "0x6080604052336000806101000a81548173ffffffffffffffffffffffffffffffffffffffff021916908373ffffffffffffffffffffffffffffffffffffffff1602179055506000809054906101000a900473ffffffffffffffffffffffffffffffffffffffff1673ffffffffffffffffffffffffffffffffffffffff16600073ffffffffffffffffffffffffffffffffffffffff167f8be0079c531659141344cd1fd0a4f28419497f9722a3daafe3b4186f6b6457e060405160405180910390a361259e806100cf6000396000f3fe6080604052600436106100e6576000357c0100000000000000000000000000000000000000000000000000000000900463ffffffff16806305856b39146100eb5780630ad1f8c51461011c57806318d46ede146101815780631cecfae2146101c957806350afb4521461022e5780636184bbf714610245578063715018a6146102c35780637d6bcecb146102da5780637fe0dd321461030b5780638da5cb5b146103b75780638f32d59b1461040e5780639dd82d0a1461043d578063ad10d9fe146104bb578063c7946c3a146104ec578063f2fde38b14610534578063ffd4814614610585575b600080fd5b3480156100f757600080fd5b506101006105b6565b604051808260000b60000b815260200191505060405180910390f35b34801561012857600080fd5b506101586004803603602081101561013f57600080fd5b81019080803560000b90602001909291905050506105bb565b604051808360000b60000b81526020018260000b60000b81526020019250505060405180910390f35b34801561018d57600080fd5b506101c7600480360360408110156101a457600080fd5b8101908080359060200190929190803560000b90602001909291905050506105f9565b005b3480156101d557600080fd5b50610218600480360360208110156101ec57600080fd5b81019080803573ffffffffffffffffffffffffffffffffffffffff169060200190929190505050610c0a565b6040518082815260200191505060405180910390f35b34801561023a57600080fd5b50610243610c22565b005b34801561025157600080fd5b5061027e6004803603602081101561026857600080fd5b8101908080359060200190929190505050610d27565b604051808560000b60000b81526020018460000b60000b81526020018381526020018260028111156102ac57fe5b60ff16815260200194505050505060405180910390f35b3480156102cf57600080fd5b506102d8610d7e565b005b3480156102e657600080fd5b506102ef610e50565b604051808260000b60000b815260200191505060405180910390f35b34801561031757600080fd5b5061035a6004803603602081101561032e57600080fd5b81019080803573ffffffffffffffffffffffffffffffffffffffff169060200190929190505050610e63565b604051808560000b60000b81526020018481526020018381526020018273ffffffffffffffffffffffffffffffffffffffff1673ffffffffffffffffffffffffffffffffffffffff16815260200194505050505060405180910390f35b3480156103c357600080fd5b506103cc610ec0565b604051808273ffffffffffffffffffffffffffffffffffffffff1673ffffffffffffffffffffffffffffffffffffffff16815260200191505060405180910390f35b34801561041a57600080fd5b50610423610ee9565b604051808215151515815260200191505060405180910390f35b34801561044957600080fd5b506104766004803603602081101561046057600080fd5b8101908080359060200190929190505050610f40565b604051808560000b60000b81526020018460000b60000b81526020018381526020018260028111156104a457fe5b60ff16815260200194505050505060405180910390f35b3480156104c757600080fd5b506104d0610f97565b604051808260000b60000b815260200191505060405180910390f35b3480156104f857600080fd5b506105326004803603604081101561050f57600080fd5b8101908080359060200190929190803560000b9060200190929190505050610fbb565b005b34801561054057600080fd5b506105836004803603602081101561055757600080fd5b81019080803573ffffffffffffffffffffffffffffffffffffffff16906020019092919050505061148a565b005b34801561059157600080fd5b5061059a6114a9565b604051808260000b60000b815260200191505060405180910390f35b600581565b60016020528060005260406000206000915090508060000160009054906101000a900460000b908060000160019054906101000a900460000b905082565b60003390506000600260008581526020019081526020016000209050600060029050600073ffffffffffffffffffffffffffffffffffffffff16600360008573ffffffffffffffffffffffffffffffffffffffff1673ffffffffffffffffffffffffffffffffffffffff16815260200190815260200160002060030160009054906101000a900473ffffffffffffffffffffffffffffffffffffffff1673ffffffffffffffffffffffffffffffffffffffff1614151515610748576040517f08c379a000000000000000000000000000000000000000000000000000000000815260040180806020018281038252603b8152602001807f7573657220696e666f726d6174696f6e206973206e6f7420696e20726567697381526020017f7472792c20706c6561736520637265617465206e65772075736572000000000081525060400191505060405180910390fd5b8060ff166002600087815260200190815260200160002060020160009054906101000a900460ff16600281111561077b57fe5b60ff16141515156107f4576040517f08c379a000000000000000000000000000000000000000000000000000000000815260040180806020018281038252601d8152602001807f73656c656374656420747261636b20697320424c41434b4c495354656400000081525060200191505060405180910390fd5b8160050160008473ffffffffffffffffffffffffffffffffffffffff1673ffffffffffffffffffffffffffffffffffffffff16815260200190815260200160002060009054906101000a900460ff161515156108de576040517f08c379a00000000000000000000000000000000000000000000000000000000081526004018080602001828103825260248152602001807f796f75206861766520616c726561647920766f746564206f6e2074686973207481526020017f7261636b0000000000000000000000000000000000000000000000000000000081525060400191505060405180910390fd5b6108e7836114ae565b15156109a7576040517f08c379a00000000000000000000000000000000000000000000000000000000081526004018080602001828103825260488152602001807f796f75206861766520657863656564656420796f7572206e756d626572206f6681526020017f20766f74657320666f7220746f6461792c20706c65617365207472792061667481526020017f657220323468727300000000000000000000000000000000000000000000000081525060600191505060405180910390fd5b7fffffffffffffffffffffffffffffffffffffffffffffffffffffffffffffffff8460000b14806109db575060018460000b145b1515610a75576040517f08c379a00000000000000000000000000000000000000000000000000000000081526004018080602001828103825260308152602001807f656e73757265207468617420646964766f75636820706172616d61746572206981526020017f7320656974686572202d31206f7220310000000000000000000000000000000081525060400191505060405180910390fd5b610a7f8585611791565b610a9a858360000160009054906101000a900460000b6117f6565b610aa5858585611b5e565b610abf8260000160009054906101000a900460000b611dc4565b60018260050160008573ffffffffffffffffffffffffffffffffffffffff1673ffffffffffffffffffffffffffffffffffffffff16815260200190815260200160002060006101000a81548160ff0219169083151502179055507f3aff3cdf9de0a4d10d7ba39d80db56f0753adecd5c49cfa3ef42277f358fa3ea838360000160009054906101000a900460000b86600360008873ffffffffffffffffffffffffffffffffffffffff1673ffffffffffffffffffffffffffffffffffffffff16815260200190815260200160002060000160009054906101000a900460000b604051808573ffffffffffffffffffffffffffffffffffffffff1673ffffffffffffffffffffffffffffffffffffffff1681526020018460000b60000b81526020018360000b81526020018260000b60000b815260200194505050505060405180910390a15050505050565b60056020528060005260406000206000915090505481565b610c2a612383565b33816060019073ffffffffffffffffffffffffffffffffffffffff16908173ffffffffffffffffffffffffffffffffffffffff168152505080600360003373ffffffffffffffffffffffffffffffffffffffff1673ffffffffffffffffffffffffffffffffffffffff16815260200190815260200160002060008201518160000160006101000a81548160ff021916908360000b60ff160217905550602082015181600101556040820151816002015560608201518160030160006101000a81548173ffffffffffffffffffffffffffffffffffffffff021916908373ffffffffffffffffffffffffffffffffffffffff16021790555090505050565b60026020528060005260406000206000915090508060000160009054906101000a900460000b908060000160019054906101000a900460000b908060010154908060020160009054906101000a900460ff16905084565b610d86610ee9565b1515610d9157600080fd5b600073ffffffffffffffffffffffffffffffffffffffff166000809054906101000a900473ffffffffffffffffffffffffffffffffffffffff1673ffffffffffffffffffffffffffffffffffffffff167f8be0079c531659141344cd1fd0a4f28419497f9722a3daafe3b4186f6b6457e060405160405180910390a360008060006101000a81548173ffffffffffffffffffffffffffffffffffffffff021916908373ffffffffffffffffffffffffffffffffffffffff160217905550565b600060149054906101000a900460000b81565b60036020528060005260406000206000915090508060000160009054906101000a900460000b908060010154908060020154908060030160009054906101000a900473ffffffffffffffffffffffffffffffffffffffff16905084565b60008060009054906101000a900473ffffffffffffffffffffffffffffffffffffffff16905090565b60008060009054906101000a900473ffffffffffffffffffffffffffffffffffffffff1673ffffffffffffffffffffffffffffffffffffffff163373ffffffffffffffffffffffffffffffffffffffff1614905090565b60046020528060005260406000206000915090508060000160009054906101000a900460000b908060000160019054906101000a900460000b908060010154908060020160009054906101000a900460ff16905084565b7ffffffffffffffffffffffffffffffffffffffffffffffffffffffffffffffffb81565b60006003905060006001028314151515611063576040517f08c379a000000000000000000000000000000000000000000000000000000000815260040180806020018281038252602a8152602001807f706c6561736520636865636b20747261636b2068617368206973206e6f74203081526020017f20616e642072657472790000000000000000000000000000000000000000000081525060400191505060405180910390fd5b6000600102600260008581526020019081526020016000206001015414151561111a576040517f08c379a00000000000000000000000000000000000000000000000000000000081526004018080602001828103825260368152602001807f7468697320747261636b206861736820686173206265656e207573656420616c81526020017f726561647920706c656173652074727920616761696e0000000000000000000081525060400191505060405180910390fd5b8060000b8260000b131515156111be576040517f08c379a00000000000000000000000000000000000000000000000000000000081526004018080602001828103825260328152602001807f706c6561736520656e7465726520612076616c69642067656e7265206e756d6281526020017f6572206265747765656e203020616e642032000000000000000000000000000081525060400191505060405180910390fd5b6111c66123c4565b8381604001818152505082816000019060000b908160000b815250506111ea612383565b33816060019073ffffffffffffffffffffffffffffffffffffffff16908173ffffffffffffffffffffffffffffffffffffffff1681525050600181602001818152505080600360003373ffffffffffffffffffffffffffffffffffffffff1673ffffffffffffffffffffffffffffffffffffffff16815260200190815260200160002060008201518160000160006101000a81548160ff021916908360000b60ff160217905550602082015181600101556040820151816002015560608201518160030160006101000a81548173ffffffffffffffffffffffffffffffffffffffff021916908373ffffffffffffffffffffffffffffffffffffffff160217905550905050816002600087815260200190815260200160002060008201518160000160006101000a81548160ff021916908360000b60ff16021790555060208201518160000160016101000a81548160ff021916908360000b60ff1602179055506040820151816001015560608201518160020160006101000a81548160ff0219169083600281111561137957fe5b0217905550608082015181600301908051906020019061139a92919061240d565b5060a08201518160040190805190602001906113b792919061240d565b509050506113c785600133611e66565b6113ed6001600060149054906101000a900460000b60000b611f9190919063ffffffff16565b506113f784611dc4565b611400336114ae565b507fac27e7b9eecd64bcf21cbeeb84747a1944cea8457c0fb497375e6b080d1e2a5c8533866001604051808581526020018473ffffffffffffffffffffffffffffffffffffffff1673ffffffffffffffffffffffffffffffffffffffff1681526020018360000b60000b815260200182815260200194505050505060405180910390a15050505050565b611492610ee9565b151561149d57600080fd5b6114a681611fb2565b50565b600581565b600080600a90506000600560008573ffffffffffffffffffffffffffffffffffffffff1673ffffffffffffffffffffffffffffffffffffffff1681526020019081526020016000205414156115af57620151804201600560008573ffffffffffffffffffffffffffffffffffffffff1673ffffffffffffffffffffffffffffffffffffffff168152602001908152602001600020819055506001600360008573ffffffffffffffffffffffffffffffffffffffff1673ffffffffffffffffffffffffffffffffffffffff16815260200190815260200160002060000160006101000a81548160ff021916908360000b60ff160217905550600191505061178c565b6000600560008573ffffffffffffffffffffffffffffffffffffffff1673ffffffffffffffffffffffffffffffffffffffff168152602001908152602001600020549050804211156116b657620151804201600560008673ffffffffffffffffffffffffffffffffffffffff1673ffffffffffffffffffffffffffffffffffffffff168152602001908152602001600020819055506116aa6001600360008773ffffffffffffffffffffffffffffffffffffffff1673ffffffffffffffffffffffffffffffffffffffff16815260200190815260200160002060000160009054906101000a900460000b60000b611f9190919063ffffffff16565b5060019250505061178c565b8160000b600360008673ffffffffffffffffffffffffffffffffffffffff1673ffffffffffffffffffffffffffffffffffffffff16815260200190815260200160002060000160009054906101000a900460000b60000b1215611785576117796001600360008773ffffffffffffffffffffffffffffffffffffffff1673ffffffffffffffffffffffffffffffffffffffff16815260200190815260200160002060000160009054906101000a900460000b60000b611f9190919063ffffffff16565b5060019250505061178c565b6000925050505b919050565b60006002600084815260200190815260200160002090506117d28260000b8260000160019054906101000a900460000b60000b611f9190919063ffffffff16565b8160000160016101000a81548160ff021916908360000b60ff160217905550505050565b60006002600084815260200190815260200160002090506000600281111561181a57fe5b60ff168160020160009054906101000a900460ff16600281111561183a57fe5b60ff161480156118615750600560000b8160000160019054906101000a900460000b60000b135b1561198b576001600281111561187357fe5b60ff168160020160009054906101000a900460ff16600281111561189357fe5b505080600460008581526020019081526020016000206000820160009054906101000a900460000b8160000160006101000a81548160ff021916908360000b60ff1602179055506000820160019054906101000a900460000b8160000160016101000a81548160ff021916908360000b60ff160217905550600182015481600101556002820160009054906101000a900460ff168160020160006101000a81548160ff0219169083600281111561194657fe5b02179055506003820181600301908054611961929190612497565b506004820181600401908054611978929190612497565b50905050611985836120ac565b50611b59565b6000600281111561199857fe5b60ff168160020160009054906101000a900460ff1660028111156119b857fe5b60ff161480156119fe57507ffffffffffffffffffffffffffffffffffffffffffffffffffffffffffffffffb60000b8160000160019054906101000a900460000b60000b125b15611b5857600280811115611a0f57fe5b60ff168160020160009054906101000a900460ff166002811115611a2f57fe5b5050611a3b83836121c6565b5060026000848152602001908152602001600020600080820160006101000a81549060ff02191690556000820160016101000a81549060ff021916905560018201600090556002820160006101000a81549060ff0219169055600382016000611aa491906124e9565b600482016000611ab491906124e9565b505060046000848152602001908152602001600020600080820160006101000a81549060ff02191690556000820160016101000a81549060ff021916905560018201600090556002820160006101000a81549060ff0219169055600382016000611b1e91906124e9565b600482016000611b2e91906124e9565b5050611b566001600060149054906101000a900460000b60000b6122f990919063ffffffff16565b505b5b505050565b60006002600085815260200190815260200160002090506000600360008473ffffffffffffffffffffffffffffffffffffffff1673ffffffffffffffffffffffffffffffffffffffff168152602001908152602001600020905060007fffffffffffffffffffffffffffffffffffffffffffffffffffffffffffffffff8560000b1415611ccc5760008360040180549050905060008090505b81811015611ca1578460040181815481101515611c1057fe5b9060005260206000200160009054906101000a900473ffffffffffffffffffffffffffffffffffffffff169250611c936001600360008673ffffffffffffffffffffffffffffffffffffffff1673ffffffffffffffffffffffffffffffffffffffff16815260200190815260200160002060020154611f9190919063ffffffff16565b508080600101915050611bf7565b50611cba60018460020154611f9190919063ffffffff16565b50611cc6878787611e66565b50611dbc565b60018560000b1415611dbb5760008360030180549050905060008090505b81811015611d94578460030181815481101515611d0357fe5b9060005260206000200160009054906101000a900473ffffffffffffffffffffffffffffffffffffffff169250611d866001600360008673ffffffffffffffffffffffffffffffffffffffff1673ffffffffffffffffffffffffffffffffffffffff16815260200190815260200160002060010154611f9190919063ffffffff16565b508080600101915050611cea565b50611dad60018460010154611f9190919063ffffffff16565b50611db9878787611e66565b505b5b505050505050565b6000600160008360000b60000b81526020019081526020016000209050611e0960018260000160009054906101000a900460000b60000b611f9190919063ffffffff16565b50611e43600060149054906101000a900460000b60000b8260000160009054906101000a900460000b60000b61231b90919063ffffffff16565b8160000160016101000a81548160ff021916908360000b60ff1602179055505050565b600060026000858152602001908152602001600020905060018360000b1415611ef657806003018290806001815401808255809150509060018203906000526020600020016000909192909190916101000a81548173ffffffffffffffffffffffffffffffffffffffff021916908373ffffffffffffffffffffffffffffffffffffffff16021790555050611f8b565b7fffffffffffffffffffffffffffffffffffffffffffffffffffffffffffffffff8360000b1415611f8a57806004018290806001815401808255809150509060018203906000526020600020016000909192909190916101000a81548173ffffffffffffffffffffffffffffffffffffffff021916908373ffffffffffffffffffffffffffffffffffffffff160217905550505b5b50505050565b6000808284019050838110151515611fa857600080fd5b8091505092915050565b600073ffffffffffffffffffffffffffffffffffffffff168173ffffffffffffffffffffffffffffffffffffffff1614151515611fee57600080fd5b8073ffffffffffffffffffffffffffffffffffffffff166000809054906101000a900473ffffffffffffffffffffffffffffffffffffffff1673ffffffffffffffffffffffffffffffffffffffff167f8be0079c531659141344cd1fd0a4f28419497f9722a3daafe3b4186f6b6457e060405160405180910390a3806000806101000a81548173ffffffffffffffffffffffffffffffffffffffff021916908373ffffffffffffffffffffffffffffffffffffffff16021790555050565b60008060026000848152602001908152602001600020905060008160000160019054906101000a900460000b905060006120f6600560000b8360000b6122f990919063ffffffff16565b90506000808460040180549050905060008090505b818110156121b757856004018181548110151561212457fe5b9060005260206000200160009054906101000a900473ffffffffffffffffffffffffffffffffffffffff1692506121a98460000b600360008673ffffffffffffffffffffffffffffffffffffffff1673ffffffffffffffffffffffffffffffffffffffff168152602001908152602001600020600101546122f990919063ffffffff16565b50808060010191505061210b565b50600195505050505050919050565b6000806002600085815260200190815260200160002090506000600160008560000b60000b815260200190815260200160002060000160019054906101000a900460000b90506000612228600560000b8360000b61234590919063ffffffff16565b90506000808460030180549050905060008090505b818110156122e957856003018181548110151561225657fe5b9060005260206000200160009054906101000a900473ffffffffffffffffffffffffffffffffffffffff1692506122db8460000b600360008673ffffffffffffffffffffffffffffffffffffffff1673ffffffffffffffffffffffffffffffffffffffff168152602001908152602001600020600201546122f990919063ffffffff16565b50808060010191505061223d565b5060019550505050505092915050565b600082821115151561230a57600080fd5b600082840390508091505092915050565b6000808211151561232b57600080fd5b6000828481151561233857fe5b0490508091505092915050565b600080831415612358576000905061237d565b6000828402905082848281151561236b57fe5b0414151561237857600080fd5b809150505b92915050565b6080604051908101604052806000800b81526020016000815260200160008152602001600073ffffffffffffffffffffffffffffffffffffffff1681525090565b60c0604051908101604052806000800b81526020016000800b815260200160008019168152602001600060028111156123f957fe5b815260200160608152602001606081525090565b828054828255906000526020600020908101928215612486579160200282015b828111156124855782518260006101000a81548173ffffffffffffffffffffffffffffffffffffffff021916908373ffffffffffffffffffffffffffffffffffffffff1602179055509160200191906001019061242d565b5b509050612493919061250a565b5090565b8280548282559060005260206000209081019282156124d85760005260206000209182015b828111156124d75782548255916001019190600101906124bc565b5b5090506124e5919061250a565b5090565b5080546000825590600052602060002090810190612507919061254d565b50565b61254a91905b8082111561254657600081816101000a81549073ffffffffffffffffffffffffffffffffffffffff021916905550600101612510565b5090565b90565b61256f91905b8082111561256b576000816000905550600101612553565b5090565b9056fea165627a7a723058205642d8c7205497159c975b8f23646bb015bb2f988f49a2f86663eedce149e52a0029",
  "source": "pragma solidity ^0.5.0;\r\n\r\nimport \"./Ownable.sol\";\r\nimport \"./SafeMath.sol\";\r\n\r\ncontract OceanBounty2 is Ownable {\r\n\r\n    ///@dev use of safemath\r\n    using SafeMath for uint256;\r\n\r\n\r\n    \r\n    /// @dev constants\r\n    int8 constant public WhitelistThreshold = 5;  \r\n    int8 constant public BlacklistThreshold = -5; \r\n    int8 constant public PunishmentMultiplier = 5; \r\n    int8 public noOfTracks; \r\n    \r\n    /// @notice enums  \r\n    enum TrackState { SANDBOX, WHITELIST, BLACKLIST} \r\n    enum TrackGenre {JAZZ, BLUES, ROCKNROLL, COUNTRY}    \r\n    event VoteSuccessful (address userAddress, int8 trackgenre, int voteValue, int8 noOfVotesToday);\r\n    event TrackCreationSuccessful (bytes32 trackhash, address userAddress, int8 trackgenre, uint voteValue);  \r\n    \r\n    /// @notice structs \r\n    struct Track  {      \r\n        int8 trackGenre;  \r\n        int8 trackRating; \r\n        bytes32 hash ;  \r\n        TrackState trackState; \r\n        address [] vouches; \r\n        address [] rejects; \r\n        mapping(address => bool) userDidVote;\r\n    }\r\n    \r\n   /// @notice details of each user and their history \r\n    struct User{\r\n        int8 noOfVotesInDay;  \r\n        uint256 vouchCredits; \r\n        uint256 rejectCredits; \r\n        address userAddress;        \r\n    }\r\n\r\n   /// @notice details of each genre \r\n    struct Genre{\r\n        int8 totalVotes; \r\n        int8 averageScore; \r\n    }\r\n\r\n    /// @notice mappings\r\n    /// @notice mapping of all genre types and their scores\r\n    /// @notice mapping storage of all tracks\r\n    /// @notice mapping storage of all users\r\n    /// @notice playlist mapping track hash to track\r\n    /// @notice mapping to keep track if user ids in relation to their expiry time\r\n    mapping (int8 => Genre) public genreRegistry; \r\n    mapping (bytes32 => Track) public trackRegistry; \r\n    mapping (address => User) public userRegistry; \r\n    mapping (bytes32 => Track) public playlist;  \r\n    mapping (address => uint) public timeOfVoteExpiry;\r\n\r\n    /// @notice ensure trackhash input is not 0\r\n    /// @notice check if track has been created already\r\n    /// @notice ensure genre input is valid\r\n    /// @dev automatic vouch for track creation\r\n    function proposeTrack(bytes32 trackHash, int8 trackGenre)public{ \r\n        int8 maxNumberOfGenres = 3;\r\n\r\n        \r\n        require(trackHash != 0, 'please check track hash is not 0 and retry'); \r\n        require(trackRegistry[trackHash].hash == 0, 'this track hash has been used already please try again'); \r\n        require(trackGenre <= maxNumberOfGenres, 'please entere a valid genre number between 0 and 2'); //\r\n        Track memory track ;  \r\n        track.hash = trackHash;  \r\n        track.trackGenre = trackGenre; \r\n\r\n        User memory user;  \r\n        user.userAddress = msg.sender;  \r\n        user.vouchCredits = 1; //\r\n        userRegistry[msg.sender] = user;\r\n        \r\n        trackRegistry[trackHash] = track;\r\n        updateuserAddressToVote(trackHash, 1,msg.sender); \r\n        uint256(noOfTracks).add(1); \r\n        updateGenre(trackGenre); \r\n        updateNumberOfVotesPerDay(msg.sender);  \r\n\r\n        emit TrackCreationSuccessful(trackHash, msg.sender,trackGenre, 1);  \r\n    }\r\n\r\n\r\n    /// @notice this function is used to create new users, which are neccesary to place votes\r\n    /// @notice function create temporary instance of a new user \r\n    /// @notice define userAddress\r\n    /// @notice store user information in registry \r\n    function createNewUser()public{ \r\n    \tUser memory newUser; \r\n    \tnewUser.userAddress = msg.sender; \r\n    \tuserRegistry[msg.sender] = newUser;       \r\n    }    \r\n    \r\n    \r\n    /// @notice this function vouches or rejects the given track based on user vote \r\n    /// @notice create a temporary address instance for userAddress, this is declared this way so that the user ID can always be easily changed to a different type\r\n    /// @notice retrieve track information from storage\r\n    /// @notice ensure user is registered\r\n    /// @notice ensure track is not BLACKLISTed\r\n    /// @notice check if user has previously voted for this track\r\n    /// @notice check if user has votes more than 10 times in a day\r\n    /// @dev require didvouch param to be either equal to -1 or 1 to avoid excessive lines of code.(-1 = reject, 1= vouch). This code line can easliy be updated in future to allow more voting options\r\n\r\n    function vouchOrReject(bytes32 trackHash, int8 didVouch)public {        \r\n        address userAddress = msg.sender; //\r\n        Track storage track = trackRegistry[trackHash];\r\n        uint8 enumBlacklistValue = 2;\r\n\r\n        require(userRegistry[userAddress].userAddress != address(0),'user information is not in registry, please create new user'); \r\n        require(uint8(trackRegistry[trackHash].trackState) != enumBlacklistValue, 'selected track is BLACKLISTed');\r\n        require(!track.userDidVote[userAddress], 'you have already voted on this track'); \r\n        require(updateNumberOfVotesPerDay(userAddress),'you have exceeded your number of votes for today, please try after 24hrs');\r\n        require((didVouch == -1 || didVouch == 1 ), 'ensure that didvouch paramater is either -1 or 1'); \r\n        \r\n        updateTrackRating(trackHash,didVouch);\r\n        updateTrackState(trackHash,track.trackGenre); \r\n        updateCredits(trackHash,didVouch,userAddress);\r\n        updateGenre(track.trackGenre); \r\n        track.userDidVote[userAddress] = true; \r\n        \r\n        emit VoteSuccessful(userAddress,track.trackGenre, didVouch, userRegistry[userAddress].noOfVotesInDay); \r\n    }\r\n\r\n\r\n    /// @notice function to updated genre registry and information\r\n    /// @notice retrieve genre information from registry\r\n    /// @notice increment genre score\r\n    /// @notice update average score\r\n    function updateGenre(int8 trackGenre)internal {\r\n    \tGenre storage _genre = genreRegistry[trackGenre];\r\n    \tuint256(_genre.totalVotes).add(1); \r\n    \t_genre.averageScore = int8(uint256(_genre.totalVotes).div(uint256(noOfTracks))); \r\n    \t}\r\n\r\n    \r\n    /// @notice internal function to update the TrackState of each track and user based on specified mechanics\r\n    /// @notice retrieve track information from registry\r\n    /// @notice check if WHITELISTing mechanics are met\r\n    /// @notice update TrackState to WHITELIST\r\n    /// @notice if WHITELISTed, save track to playlist\r\n    /// @notice check if BLACKLISTing mechanics are met\r\n    /// @notice update TrackState to BLACKLIST\r\n    /// @notice call function to penalize vouches for BLACKLISTed tracks\r\n    /// @notice if BLACKLISTed, then remove from registry\r\n    /// @notice if BLACKLISTed, delet from playlist\r\n    /// @noticereduce number of track count\r\n    /// @notice if non of the conditions are met, do nothing\r\n    function updateTrackState(bytes32 trackHash, int8 trackGenre)internal {\r\n        Track storage track = trackRegistry[trackHash]; \r\n        \r\n        if(uint8(track.trackState) == uint8 (TrackState.SANDBOX) && track.trackRating > WhitelistThreshold) { \r\n            uint8(track.trackState) == uint8(TrackState.WHITELIST); \r\n            playlist[trackHash] = track;  \r\n            applyWhitelistPenalty(trackHash); \r\n        }else if(uint8(track.trackState) == uint8(TrackState.SANDBOX) && track.trackRating < BlacklistThreshold) { \r\n            uint8(track.trackState) == uint8(TrackState.BLACKLIST); \r\n            applyBlacklistPenalty(trackHash, trackGenre); \r\n            delete trackRegistry[trackHash]; \r\n            delete playlist[trackHash]; \r\n            uint256(noOfTracks).sub(1) ; \r\n        }\r\n    }\r\n\r\n\r\n    /// @notice penalize voters who rejected tracks that are WHITELISTed\r\n    /// @notice retrieve track information from registry\r\n    /// @notice retrieve track rating\r\n    /// @notice calculate penalty score\r\n    /// @notice create temporary address type of user ID\r\n    /// @notice get the length of array containing the address of all users who voted reject on track\r\n    /// @notice loop through all voters of reject and apply penalty\r\n    /// @notice retrieve user ids\r\n    /// @notice apply penalty \r\n    function applyWhitelistPenalty(bytes32 trackHash)internal returns(bool){\r\n        Track storage track = trackRegistry[trackHash]; \r\n        int8 _trackRating = track.trackRating; \r\n        int8 penalityScore = int8(uint256(_trackRating).sub(uint256(WhitelistThreshold))); \r\n        address _userAddress; \r\n        uint length = track.rejects.length; \r\n                \r\n            for(uint i=0; i<length ; i++){ \r\n                _userAddress = track.rejects[i];\r\n                userRegistry[_userAddress].vouchCredits.sub(uint256(penalityScore)); \r\n            }\r\n            return true;\r\n        }    \r\n\r\n    /// @notice penalize voters who vouched for tracks that are BLACKLISTed\r\n    /// @notice retrieve track information from registered\r\n    /// @notice retrieve genre average score\r\n    /// @notice calculate penalty score\r\n    /// @notice create temporary address type of user ID\r\n    /// @notice get the length of array containing the address of all users who voted vouch on track\r\n    /// @notice loop through all voters of vouch on the track and apply penalty\r\n    /// @notice retrieve user id\r\n    /// @notice apply penalty\r\n    function applyBlacklistPenalty(bytes32 trackHash, int8 _genre)internal returns(bool){\r\n        Track storage track = trackRegistry[trackHash];  \r\n        int8 _averageScore = genreRegistry[_genre].averageScore; \r\n        int8 penalityScore = int8(uint256(_averageScore).mul(uint256(PunishmentMultiplier)));  \r\n        address _userAddress; \r\n        uint length = track.vouches.length;  \r\n                \r\n            for(uint i=0; i<length ; i++){  \r\n                _userAddress = track.vouches[i];\r\n                userRegistry[_userAddress].rejectCredits.sub(uint256(penalityScore));  \r\n            }\r\n            return true;\r\n        }\r\n\r\n    /// @notice function to update arrays within tracks that contain all user ids of all vouches and rejections\r\n    /// @notice retrieve track information from register\r\n    /// @notice update array of users who vouched for the track\r\n    /// @notice update array of users who rejected the track\r\n    function updateuserAddressToVote(bytes32 trackHash, int8 didVouch,address userAddress)internal{        \r\n        Track storage track = trackRegistry[trackHash]; \r\n        if(didVouch == 1){\r\n            track.vouches.push(userAddress); \r\n        }\r\n        else if(didVouch == -1){\r\n            track.rejects.push(userAddress); \r\n        } \r\n    }    \r\n    \r\n    \r\n    /// @notice this function assigns credits to users appropriately based on vote type(vouch/reject)\r\n    /// @notice retrieve track information from registry\r\n    /// @notice update average score\r\n    function updateTrackRating(bytes32 trackHash, int8 didVouch)internal{\r\n        Track storage track = trackRegistry[trackHash]; \r\n        track.trackRating = int8(uint256(track.trackRating).add(uint256(didVouch)));        \r\n        }        \r\n    \r\n    \r\n    /// @notice this function checks if user is allowed to vote based on daily vote limits \r\n    /// @notice check if its the first time the user is voting\r\n    /// @notice set expiration time\r\n    /// @notice increase the number of votes the user has made in a day\r\n    /// @notice check if time is expired\r\n    /// @notice expiration time is due, so reset expiration time\r\n    /// @notice increment user votes in a day if expiration time is passed\r\n    /// @notice check if user has exceeded number of allowed votes in a day\r\n    /// @notice increment user votes in a day if less than limit\r\n    function updateNumberOfVotesPerDay(address userAddress)internal returns (bool){\r\n        int8 maxNoVotesInADay = 10;\r\n\r\n        if (timeOfVoteExpiry[userAddress] == 0){ \r\n            timeOfVoteExpiry[userAddress] = now + 1 days;\r\n            userRegistry[userAddress].noOfVotesInDay  = 1; \r\n            return true;            \r\n       } else{\r\n       \t\tuint expirationTime = timeOfVoteExpiry[userAddress];\r\n       \t\tif (now > expirationTime ){ \r\n\t            timeOfVoteExpiry[userAddress] = now + 1 days; \r\n\t            uint256(userRegistry[userAddress].noOfVotesInDay).add(1); \r\n            \treturn true;\r\n\t        }else{\r\n\t        if (userRegistry[userAddress].noOfVotesInDay < maxNoVotesInADay){ \r\n\t        \tuint256(userRegistry[userAddress].noOfVotesInDay).add(1);    \r\n\t        \treturn true;\r\n\t        }\r\n\t        \treturn false;\r\n\t    }\r\n\t      } \r\n    }      \r\n\r\n\r\n    /// @notice this function updates all subsequent user credits based on vote type\r\n    /// @notice retrieve track information from registry\r\n    /// @notice if the vote is a reject, then loop through all previous rejects and increment all address with a reject credit of +1 \r\n    /// @notice get array length of previous addressed who have voted reject   \r\n    /// @notice retrieve user ids   \r\n    /// @notice update all previous users with relevant reject credits\r\n    /// @notice  update users reject credits\r\n    /// @notice update vouch/reject array with users vote type\r\n    /// @notice if the vote is a vouch, then loop through all previous vouches and increment all address with a vouch credit of +1 \r\n    /// @notice get array length of previous addressed who have vouched   \r\n    /// @notice retrieve user ids\r\n    /// @notice update all previous users with relevant vouch credits\r\n    /// @notice update users reject credits\r\n    /// @notice update vouch/reject array with users vote type\r\n    function updateCredits(bytes32 trackHash, int8 didVouch, address userAddress)internal{       \r\n        Track storage track = trackRegistry[trackHash];  \r\n        User storage user = userRegistry[userAddress];\r\n        address _userAddress;\r\n        \r\n        if (didVouch == -1){      \r\n            uint length = track.rejects.length;          \r\n            for(uint i=0; i<length ; i++){\r\n                _userAddress = track.rejects[i];\r\n                userRegistry[_userAddress].rejectCredits.add(1);  \r\n            }\r\n            user.rejectCredits.add(1); \r\n            updateuserAddressToVote(trackHash, didVouch,userAddress); \r\n        } else if(didVouch == 1 ){   \r\n            uint length = track.vouches.length; \r\n                \r\n            for(uint i=0; i<length ; i++){\r\n                _userAddress = track.vouches[i];\r\n                userRegistry[_userAddress].vouchCredits.add(1); \r\n            }\r\n            user.vouchCredits.add(1); \r\n            updateuserAddressToVote(trackHash, didVouch,userAddress); \r\n            } \r\n    }    \r\n}\r\n    \r\n    \r\n    \r\n \r\n\r\n",
  "sourcePath": "/Users/chris/Documents/BlockchainProjects/oceanprotocol/musicmap/contracts/contracts/OceanBounty2.sol",
  "compiler": {
    "name": "solc",
    "version": "0.5.0+commit.1d4f565a.Emscripten.clang"
  },
  "schemaVersion": "3.0.2",
  "updatedAt": "2019-02-24T17:05:58.596Z",
  "devdoc": {
    "methods": {
      "isOwner()": {
        "return": "true if `msg.sender` is the owner of the contract.\r"
      },
      "owner()": {
        "return": "the address of the owner.\r"
      },
      "proposeTrack(bytes32,int8)": {
        "details": "automatic vouch for track creation"
      },
      "renounceOwnership()": {
        "details": "Allows the current owner to relinquish control of the contract.\r"
      },
      "transferOwnership(address)": {
        "details": "Allows the current owner to transfer control of the contract to a newOwner.\r",
        "params": {
          "newOwner": "The address to transfer ownership to.\r"
        }
      },
      "vouchOrReject(bytes32,int8)": {
        "details": "require didvouch param to be either equal to -1 or 1 to avoid excessive lines of code.(-1 = reject, 1= vouch). This code line can easliy be updated in future to allow more voting options"
      }
    }
  },
  "userdoc": {
    "methods": {
      "createNewUser()": {
        "notice": "store user information in registry "
      },
      "renounceOwnership()": {
        "notice": "Renouncing to ownership will leave the contract without an owner.\r It will not be possible to call the functions with the `onlyOwner`\r modifier anymore.\r"
      }
    }
  }
}